:08000000803102288731C32F73
:10000C00F000700820009D00080020003908F00066
:10001C003A08F1003B08F2008E31C92680312000ED
:10002C003C088F316C27803120005108F0005208B9
:10003C00F1005308F2008E31C926803104302000C3
:10004C00BD003D30890B2828BD0B28280032080044
:10005C00F501F6017008710403195D28F701F70A20
:10006C00F11B42280130F035F10D890B3928013094
:10007C00F4007408F70736280130F535F60D890BB6
:10008C00432871087302031D4D2870087202031C6B
:10009C0054287008F2027108F33B75140130F136E4
:1000AC00F00C890B55280130F702031D4228760805
:1000BC00F1007508F0000800200097013E00E501F2
:1000CC002000960198013E00B901C401CF01DF3038
:1000DC00B800EF30C300FD30CE00FF30200092009E
:1000EC00BA309300F030910000308B1B0130F000DF
:1000FC008B1355303D008F00AA308F000F1010303D
:10010C003E00A0001030A6003D004B08E03911382D
:10011C00CB000C30C30019303E00A20055303D001E
:10012C008F00AA308F000F14701C9E288B170800AC
:10013C008B130800DC340334003408349734043453
:10014C000034043470340334003408341034033471
:10015C00003402347034033400340234DC3403349D
:10016C0000340834973404340034043470340334C9
:10017C0000340C34DC340334003408349734043445
:10018C0000340434E03406340034083420340634AB
:10019C0000340434973404340034083417340434F1
:1001AC0000340234DC34033400340234703403344D
:1001BC0000340C341034033400340C340B3402345B
:1001CC0000340C346E34023400340234BA34023449
:1001DC000034023410340334003408340B34023449
:1001EC00003408346E34023400340234BA3402342D
:1001FC00003402344B34023400340C3400340034F8
:10020C0000340C34BA34023400340C34D23401349B
:10021C0000340C344B340234003402346E34023467
:10022C0000340234BA34023400340834D234013489
:10023C00003408346E340234003402344B3402344B
:10024C00003402340B34023400340C34F601F11F48
:10025C003629F009F109F00A0319F10AF601F60A38
:10026C00F31F4129F209F309F20A0319F30A0130C9
:10027C00F4007408F606F701F8017008710403190C
:10028C007029F501F50AF11B55290130F035F10DF6
:10029C00890B4C290130F4007408F5074929013009
:1002AC00F735F80D890B562971087302031D602967
:1002BC0070087202031C67297008F2027108F33B84
:1002CC0077140130F136F00C890B68290130F502F6
:1002DC00031D5529760803197829F709F809F70A37
:1002EC000319F80A7808F1007708F00008002000DC
:1002FC003F08F1003E08F0007030F2001730F300B8
:10030C0081312C2181317108FA007008F9000A3012
:10031C00FB000030FC008F31862781317A082000E9
:10032C00C4007908C3000430F0000030F100440828
:10033C00F3004308F20081312C2181317008200038
:10034C00C0007108C100890D893B8909C2004008B1
:10035C00F8004108F9004208FA008F31402781313A
:10036C0078082000A3007908A4007A08A5001230B0
:10037C00A0008330A1003F30A2008231C422813121
:10038C0020002008B0002108B1002208B200823100
:10039C003D22813120003008FD007D08C500450854
:1003AC0080310620080073080319E12972087104D2
:1003BC007004031DF2290030F0000030F100003011
:1003CC00F20008000130F5007508F3070130F23631
:1003DC00F10CF00C890BED29FE30720503190B2A78
:1003EC00E8290130F5007508F3070130F0070030FB
:1003FC0003180130F107003003180130F207013007
:10040C00F236F10CF00C890B062AFF307205031939
:10041C00182AF7290130F3020130F035F10DF20DF5
:10042C00890B132AF11B1E2A023073020318102A9F
:10043C007318262AFF30F0057F30F105FF30F205E6
:10044C000310F30C7308F500F601F7011030F535C5
:10045C00F60DF70D890B2D2A7508F0047608F104BA
:10046C007708F204740803190800F217080020003A
:10047C003008B4003108B5003208B6000310350D51
:10048C00360DB7003708BD003D08031D562A003055
:10049C00B3000030B2000030B1000030B0000800F2
:1004AC003008B4003108B5003208B6001730B63643
:1004BC00B50CB40C890B5D2A3408B7003708B800AA
:1004CC00B117FF30B005FF30B1050030B205300870
:1004DC00B9003108BA003208BB00BC018E30BD0235
:1004EC00BD1F942A3D08803A8F3E0318862A00309F
:1004FC00B3000030B2000030B1000030B000080092
:10050C000130BC36BB0CBA0CB90C890B872A0130F4
:10051C00B4003408BD070319AD2A862A18303D02F1
:10052C00031CAA2A0030B3000030B2000030B10026
:10053C000030B00008000130B935BA0DBB0DBC0D50
:10054C00890BA22A0130BD023D08031DA12A3808DF
:10055C000319BB2AB909BA09BB09BC09B90A0319A1
:10056C00BA0A0319BB0A0319BC0A3C08B3003B08BE
:10057C00B2003A08B1003908B00008002000230886
:10058C00A6002408A7002508A8000310270D280D95
:10059C00A9002908AE002E08031DDB2A0030A0009C
:1005AC000030A1000030A20008002008A60021089D
:1005BC00A7002208A8000310270D280DA900290860
:1005CC00AF002F08031DF12A0030A0000030A1005D
:1005DC000030A20008000030AB000030AC0000304E
:1005EC00AD0089302F07A6002608AE022308A6000E
:1005FC002408A7002508A8001030A836A70CA60CC4
:10060C00890B032B2608A9002908AF002008A60097
:10061C002108A7002208A8001030A836A70CA60CA9
:10062C00890B132B2608A9002908AF068030A600D9
:10063C002608AF05A417FF30A305FF30A405003032
:10064C00A505A117FF30A005FF30A1050030A205BC
:10065C001830A6002608AA000130AB35AC0DAD0D44
:10066C00890B332B22082502031D422B210824025F
:10067C00031D422B20082302031C4B2B2008A30232
:10068C002108A43B2208A53B2B140130A335A40D53
:10069C00A50D890B4C2B0130AA02031D322B2B0804
:1006AC00F0002C08F1002D08F2002E08A6002608F8
:1006BC00F3002F08A7002708F4008131D921700816
:1006CC002000A0007108A1007208A2000800A03050
:1006DC002000C6004608D0008F312E278331200021
:1006EC005108F0005208F1005308F2008E31C9266F
:1006FC008331002C5008063E86008701403FBE0027
:10070C00413FBF0081317D2183310A302000A2009E
:10071C008830A300500886008701403FA400413F69
:10072C00A5005008063E86008701403FA600413FC9
:10073C00A7008431472483312000CE015008043EA9
:10074C0086008701403FC600413FC7004E08C800E5
:10075C00C90147084902031DB52B46084802031876
:10076C00002C4330A2008830A3004E08C600C701FD
:10077C00C635C70DC635C70D5008023E8600870129
:10078C00403FC800413FC90046084807860047085B
:10079C00493D8700403FA400413FA500423FA600D1
:1007AC0084314724833120004E08C600C701C6356A
:1007BC00C70DC635C70D5008023E86008701403F65
:1007CC00C800413FC9004608480786004708493D14
:1007DC008700403FB900413FBA00423FBB00433F56
:1007EC00BC0080310B20833101302000C60046084C
:1007FC00CE07A42B20008C1E802B04308F311227A7
:10080C00833171082000CB007008CA00AA30CC00DC
:10081C000030CD004C08013EF00000304D3DF100A1
:10082C004B08F3004A08F20080312E208331700807
:10083C002000C6004608CF004F08C6000230C6355F
:10084C00FF3E031D252C4635A03EC7004708D000AF
:10085C000130C6004608CF074F1C362C1614372C17
:10086C001610CF1C3B2C96143C2C96104F1D402C74
:10087C001615412C1611CF1D452C9615002C9611D2
:10088C00002C24302000A8002808AE0020002308EB
:10089C00A9002208A800A20A0319A30A28088400A8
:1008AC00290885000008AA002A08B7003708031990
:1008BC000800253037060319682C37088E31C426FA
:1008CC0084314C2C2000B501B601AD012208840006
:1008DC002308850000088F3120278431031C022D4A
:1008EC002000B501B6010A30F9000030FA002000F2
:1008FC003608FC003508FB008F31862784317A08D6
:10090C002000B6007908B500220884002308850071
:10091C000008D03EA800FF3003180030A9002808BA
:10092C00B5072908B63D0130A2070030A33D2208C7
:10093C0084002308850000088F3120278431031C94
:10094C00022D792C20002E0886008701403FAF0035
:10095C00413FB0000230A8002808AE072F08300431
:10096C00031DBC2C3530AF008830B000B301B4018E
:10097C002F08330784003008343D8500120003191A
:10098C00CC2C0130B3070030B43DBE2C36083402F9
:10099C00031DD22C350833020318D92C3308B502A9
:1009AC003408B63BDB2CB501B601FF302000B5078F
:1009BC00FF30B63D350A0319360A0319F72C2030DF
:1009CC008E31C4268431DB2C2F088400300885003E
:1009DC0000088E31C426843101302000AF0700306E
:1009EC00B03D0130B3020030B43B330A031DEA2C96
:1009FC00340A03194C2CEA2C20002308A9002208E5
:100A0C00A800A20A0319A30A280884002908850053
:100A1C000008B700003A0319D62D643A03191D2DAE
:100A2C000D3A03191D2D1A3A0319A82C4C2C200031
:100A3C002E0886008701403FB100413FB2000230D2
:100A4C00A8002808AE07B21F342D0330A8002808D0
:100A5C00AD04B109B209B10A0319B20AB701B70A58
:100A6C00053037060319592D3708A800A901A835F8
:100A7C00A90D0030280784008830293D8500003FEF
:100A8C00AA00013FAB002B083202031D4F2D2A0890
:100A9C003102031C592D0130A8002808B707053076
:100AAC003706031D3A2D350836040319652D2D081C
:100ABC0003390319652DFF30B507FF30B63D3708F4
:100ACC00A800A901A81BA9032908803AAA00360886
:100ADC00803A2A02031D742D350828020318812D33
:100AEC0020003708A800A901A81BA9032808B502F3
:100AFC002908B63B842D2000B501B6013508360413
:100B0C000319952D20308E31C4268431FF302000FE
:100B1C00B507FF30B63D35083604031D882D2D086A
:100B2C00033903199D2D2D308E31C42684312000BC
:100B3C003708A8002808AC00FF302000A8002808BF
:100B4C00AC072C0A03194C2C0A30F8000030F900C1
:100B5C002C08A800A901A835A90D0030280784008D
:100B6C008830293D8500003FF000013FF10032083C
:100B7C00F3003108F20080312E2084317108FB0023
:100B8C007008FA008F31A42784317808303E200099
:100B9C00AA002A08B70037088E31C4268431A22D4A
:100BAC00080006340134003402340B3402340034AF
:100BBC000234DC34003400340234B83401340034F0
:100BCC000234E934003400340234D23401340034B9
:100BDC0002340034003400340C3406340134003454
:100BEC0002340B34023400340234DC34003400346C
:100BFC000234B834013400340234E93400340034A3
:100C0C000234D23401340034023400340034003461
:100C1C000C34AF340034003402345D34013400340D
:100C2C00023493340034003402342634013400345A
:100C3C0002349C3400340034023437340134003430
:100C4C0002340034003400340C34AF34003400343B
:100C5C0002345D34013400340234933400340034F3
:100C6C00023426340134003402349C340034003411
:100C7C00023437340134003402340034003400348C
:100C8C000634373401340034013415340134003463
:100C9C000234263401340034043415340134003465
:100CAC000434373401340034043437340134003420
:100CBC000434D034003400340434C43400340034EC
:100CCC000434153401340034043406340134003453
:100CDC00023472340134003402345D340134003493
:100CEC000234A534003400340234D23401340034DC
:100CFC000234B8340134003402349F3401340034EB
:100D0C0002343734013400340234F7340034003404
:100D1C000234E934003400340234DC34003400345E
:100D2C000234D034003400340234933402340034AE
:100D3C0004349334023400340434933402340034D5
:100D4C0008349334023400340434933402340034C1
:100D5C0004349334023400340834933402340034B1
:100D6C00043410340334003404340B3402340034AF
:100D7C0006344B34023400340234933402340034DD
:100D8C001034BA34023400340434BA34023400342B
:100D9C000434BA34023400340434BA340234003427
:100DAC000434BA340234003404349334023400343E
:100DBC000434933402340034043493340234003455
:100DCC0004344B340234003404344B3402340034D5
:100DDC000434933402340034043493340234003435
:100DEC0004344B34023400340834103403340034EB
:100DFC000834933402340034043493340234003411
:100E0C000434933402340034083493340234003400
:100E1C0004349334023400340434933402340034F4
:100E2C000834933402340034043410340334003462
:100E3C0004340B340234003406344B3402340034A2
:100E4C0002349334023400341034BA340234003493
:100E5C000434BA34023400340434BA340234003466
:100E6C000434BA34023400340434BA340234003456
:100E7C000434933402340034043493340234003494
:100E8C000434933402340034043410340334003406
:100E9C0004341034033400340434BA3402340034CF
:100EAC0004344B340234003404340B340234003434
:100EBC001034703403340034023400340034003401
:100ECC0002341734043400340334703403340034E3
:100EDC000234703403340034013497340434003455
:100EEC0002347034033400340234103403340034CC
:100EFC0002347034033400340234003400340034CF
:100F0C000234273405340034033470340334003491
:100F1C000234703403340034013475340534003435
:100F2C0002342734053400340234173404340034CA
:100F3C000234703403340034023427340534003462
:100F4C000234E03406340034023470340334003498
:100F5C0001341034033400340234103403340034BC
:100F6C0001349334023400340234DC34033400345E
:100F7C0002347034033400340634D73084008530A6
:100F8C00850004308600223087000130FF00EC30F1
:100F9C008E31F9268731D03084008F308500A03017
:100FAC008600003087000030FF0030308E31F9268B
:100FBC008731A030840080308500203086000130DD
:100FCC0087000030FF0040308E31F9268731E03049
:100FDC00840080308500A03086000130870000300E
:100FEC00FF004C308E31F926D101D201D301200003
:100FFC0083316D2B013400340A34003464340034F2
:10100C00E8340334103427340A340D3450346C343F
:10101C006134793469346E34673420342534733454
:10102C003A340A340D34543465346D3470346F34BE
:10103C0020343D34203425346934003441342E348A
:10104C00203446346F346C346534793400344C3489
:10105C0075346C346C346134623479340034283433
:10106C006E3475346C346C3429340034413453345C
:10107C004F3449344134463400340A340D34093485
:10108C002534343469340034423465346C346C3473
:10109C007334003453344D344234323400345334CA
:0A10AC004D34423400342E34003479
:101D780020009E1708002E000C0E890C013908005F
:101D8800F10071088E31D126080072082B009100ED
:101D98007108900070088F000800F0002E000F1ED8
:101DA800D22E700822009A000800623031008D009F
:101DB8008F0191010230930092010800083022003F
:101DC8009F0090309D0024309E000C309B009C01A9
:101DD800080020009E0148309F00F4309D009C01BF
:101DE8002E008C128E31BC260800FE0012001E0048
:101DF8000130FE020030FF3B7F087E0403190034E7
:101E0800FA2E80302B00920093018E018D019101F2
:101E1800033090009B308F0092170800F30073087E
:101E280021009E009317131313141318192F0D086C
:101E3800F1000C08F0000800F100F0013A307102DE
:101E480003182C2F30307102031C2C2FF001F00ADC
:101E5800700C0800803162208F318E31D9268F3185
:101E68008F3154278F318F3105278F318E31ED26F1
:101E78008F318E31E22608007808F0007908F100E9
:101E88007A08F2008E30FB007B08F300F401813100
:101E9800D9217008F8007108F9007208FA000800E2
:101EA80021009401950196019901970198019A01E1
:101EB8009B019C019D019E0122008D018E018F01D5
:101EC8009001910192019301943021009300080040
:101ED8002000B8005930A2008830A300843147247C
:101EE8008F312E008C128E31BC268F318E31BF2659
:101EF8008F31003A03197A2F01302000B8020319F4
:101F080008006E2F2000A001A101791C902F7B08EA
:101F18002000A0077C08A13D0130FB35FC0D890B92
:101F2800912F0130FA36F90C890B962F79087A042B
:101F3800031D892F20002108FA002008F900080055
:101F4800780879040319CB2FFD01FD0AF91BB62F78
:101F58000130F835F90D890BAD2F0130FC007C08F4
:101F6800FD07AA2F79087B02031DBC2F78087A0287
:101F7800031CC22F7808FA027908FB3B0130F936B6
:101F8800F80C890BC32F0130FD02031DB62F7B0807
:101F9800F9007A08F80008003C348834A034013489
:101FA80013340034B43400344A34883404342234CA
:101FB80031340034783400342D34883420340134FA
:101FC800103400345A34003455348834C834223438
:101FD80031340034F034003450348834C834223476
:101FE8003134003478340034243488348C34233445
:081FF800193400347834003480
:020000040001F9
:0A000E00EC3FFF3B9F3FFF3FFF3F29
:00000001FF
