:02000000FE29D7
:10035E0013150800603090000800C03096000800A9
:10036E00B121BB21B421C02989309F000615081583
:10037E0008009301FF30920091018C100800C1001B
:10038E00C000C00DC00D1F084006E33940069F0097
:10039E001F149F149F18D1291E0808004008C20080
:1003AE00C20CC20C420CC03994004108C300400874
:1003BE00C2000310C30CC20C0310C30CC20C4208C3
:1003CE0095000800B721061086108714AF21023061
:1003DE00C621C400C5010310C40DC50D0310C40D04
:1003EE00C50D4508C1004408C000D521EE29830182
:0203FE00E929EB
:02400E00E03D93
:00000001FF
