:08000000803102288731FA2F3C
:100EE6001834F1007108873179270800F0002E00C8
:100EF6000F1E7A2F700822009A0008006230310017
:100F06008D008F0191010230930092010800873114
:100F1600C427873187318127873187319327080096
:100F2600093022009F0090309D0024309E00013041
:100F36009B009C01080087318A2787310030F20028
:100F46008830F3008731A9278731A12F7430F40048
:100F56007408F7007308F5007208F400F20A031922
:100F6600F30A74088400750885000008F600760800
:100F7600F800780803190800780887317427873144
:100F8600AD2F2000960197019801FF309100FF30A8
:100F96009200BF3093007F303E00CE00FF30C3008A
:100FA600FF30B800E501C401B901CF01BA01C5019E
:100FB600D00100308B1B0130F0008B1355303D0003
:100FC6008F00AA308F000F1010303E00A6003D00A3
:100FD6004B08E0391738CB0055308F00AA308F0008
:100FE6000F14701CF82F8B1708008B13080087311D
:100FF6007327F900200087319E2F483465346C34FE
:101006006C346F3420344D34753474346834613440
:101016006E346E346134203441347434743479342B
:0E1026006134683420340A3400344D34003410
:020000040001F9
:0A000E00EC3FFF3B9F3FFF3FFF3F29
:00000001FF
