:040000008031202803
:1000060008007E14803120007F08FD000B1F132896
:100016002E0099198F1D13288031032080311B284B
:100026000B1F1B282E0019190F1D1B288A31302281
:100036007D082000FF007E10090080312228F00193
:10004600F101F201F301F401F501F6012000EF01DF
:10005600E43084000030850009309C316924803109
:10006600203084000130850014309C3169247E10D4
:1000760020009231182AA2302000E70067082100EC
:10008600B600210021082000E800210020082000F9
:10009600E7002100A00A0319A10A200067088400CE
:1000A600680885000008E90069082100C8004808BA
:1000B60003190800253048060319662848089C31AC
:1000C6006324803144282100B701B8012008840048
:1000D6002108850012002E3A031DAF28381701307B
:1000E600A0070030A13DC601C701200884002108F1
:1000F600850000089C31D0248031031C052921008D
:10010600200884002108850000082000E700E80197
:10011600210047082000B100210046082000B00059
:100126000A30B2000030B3009D31392580312000FD
:1001360067083007E9006808313DEA006908D03EE3
:100146002100C600FF3020006A3D2100C7000130B3
:10015600A0070030A13D78282100C601C701381646
:10016600052938152F29B716B7172F2936088600FF
:100176008701403FB400413FB50002302000E70050
:1001860067082100B60734083504031DCE280F3052
:10019600B4008A30B500B201B301340832078400D6
:1001A6003508333D850012000319DE280130B207F9
:1001B6000030B33DD028460847040319EE2833081B
:1001C6004702031DE828320846020318EE284708AE
:1001D600B3004608B2000130B2020030B33B320A27
:1001E6000319330A031944283408840035088500A6
:1001F60000089C316324803101302100B4070030AF
:10020600B53DEE28210021082000E8002100200845
:100216002000E7002100A00A0319A10A20006708B0
:1002260084006808850000082100C800003A031908
:10023600402F583A0319B6283C3A03192F29023A97
:100246000319B4280F3A03192F291A3A0319B928A2
:100256000B3A0319B7284428003037052000E70079
:100266000730210038052000E800670868040319F4
:10027600792D2100381E43290630C6000030C700FC
:10028600360886008701403FC300413FC400423F15
:10029600C50003302000E70067082100B6074308C1
:1002A6002000A000210044082000A10021004508EC
:1002B6002000A2000030A3000030A4000030A500FA
:1002C6009E31AE268031031887292100430820007D
:1002D600A000210044082000A100210045082000BC
:1002E600A2009C316F248031200020082100C30029
:1002F600200021082100C400200022082100C5009A
:100306000330B7040030B8042100B901BA0145082A
:10031600440443040319592AC33086008701403F29
:100326002000E700413FE800423FE900433FEA0082
:100336000F30EA36E90CE80CE70C890B9C29FF30F4
:100346006705EB0000306805EC006B08823E210073
:10035600B900FF3020006C3D2100BA00FF30B9071C
:10036600FF30BA3D03302000B0000030B10021005C
:100376003A082000B300210039082000B2009D3160
:1003860039258031200031082100BA0020003008CC
:100396002100B9000A302000A7000030A800210083
:1003A6003A082000AA00210039082000A90090314F
:1003B600BB208031200028082100BA002000270831
:1003C6002100B900BA1FEB29FF30B907FF30BA3D4B
:1003D6003903FF3A8D31BA258031200046082100C5
:1003E600BB00200047082100BC002000480821006F
:1003F600BD0043082000B600210044082000B700D5
:10040600210045082000B80021003B082000B90063
:1004160021003C082000BA0021003D082000BB0056
:1004260093311D238031200036082100BB002000B7
:1004360037082100BC00200038082100BD003B0819
:100446002000A00021003C082000A10021003D085A
:100456002000A2000030A3008030A4003F30A50099
:100466009E31AE26803103183D2AFF302100B907A0
:10047600FF30582A21003B082000A00021003C083C
:100486002000A10021003D082000A2000030A300AA
:100496002030A4004130A5009E31AE268031031CD9
:1004A600592A01302100B9070030BA3D210047081A
:1004B600803A2000E70080306702031D652A0D3070
:1004C6002100460203188E2A2100460896319A26F4
:1004D600803120004608D4004708D5004808D600D9
:1004E600210043082000D700210044082000D8003E
:1004F600210045082000D90094318724803120004E
:1005060054082100C300200055082100C400200023
:1005160056082100C50021003A08803A2000E7006D
:1005260080306702031D9A2A0A3021003902031817
:10053600C52A21004508440443040319242B430813
:100546002000CF00210044082000D00021004508EB
:100556002000D100923196228031200052085104A9
:1005660050044F04031D242B21003A08803A200032
:10057600E70080306702031DC32A023021003902DA
:10058600031C242B21003B082000A00021003C086E
:100596002000A10021003D082000A2007030A30029
:1005A6008930A4004030A5009E31AE268031031864
:1005B600DE2AF730DF2AF8302100B907FF30BA3DCE
:1005C60039088D31BA258031200046082100BB004C
:1005D600200047082100BC00200048082100BD007B
:1005E60043082000A000210044082000A1002100AB
:1005F60045082000A20021003B082000A30021009E
:100606003C082000A40021003D082000A5009331ED
:10061600D1238031200023082100C20020002208B7
:100626002100C100200021082100C0002000200870
:100636002100BF000030C3000030C4000030C500F8
:10064600792B210043082000CF0021004408200018
:10065600D000210045082000D10092319622803139
:10066600200052082100C200200051082100C100CC
:10067600200050082100C00020004F082100BF00C4
:1006860042082000AB00210041082000AA002100FA
:1006960040082000A90021003F082000A8009D3145
:1006A600F825803120002808E1002908E2002A0800
:1006B600E300210043082000E40021004408200054
:1006C600E500210045082000E6009D3155258031D2
:1006D600200061082100C300200062082100C40038
:1006E600200063082100C500B901BA01C801C80A83
:1006F6000A3048060319B62B48082000E700E8012F
:10070600E735E80DE735E80D4130670784008730A7
:10071600683D8500003FE900013FEA00023FEB002B
:10072600033FEC006C0821004202031DAA2B2000A7
:100736006B0821004102031DAA2B20006A08210034
:100746004002031DAA2B2000690821003F02031C5A
:10075600B62B01302000E70067082100C8070A30E1
:100766004806031D7F2B033037052000E7000030C5
:10077600210038052000E800670868040319C72B24
:100786002D309C3163248031FF302000E70067085C
:100796002100C807480A0319422C210048082000F6
:1007A600E700E801E735E80DE735E80D4130670772
:1007B60084008730683D8500003FA000013FA1000E
:1007C600023FA200033FA300210042082000A70029
:1007D600210041082000A600210040082000A500B5
:1007E60021003F082000A40091310D218031200016
:1007F60023082100BE00200022082100BD002000A1
:1008060021082100BC00200020082100BB00003088
:100816002000B1000030B0000030AF000A30AE005A
:1008260021003E082000B50021003D082000B4004C
:1008360021003C082000B30021003B082000B20044
:100846009E31EA268031200031082100BE002000BA
:1008560030082100BD0020002F082100BC00200028
:100866002E082100BB003B08303EC42B30309C31A3
:1008760063248031FF302100B907FF30BA3D3A08C2
:10088600803A2000E70080306702031D4D2C0130BE
:10089600210039020318392C21004708803A20002C
:1008A600E70080306702031D5B2C093021004602F9
:1008B600031C5F2C0830612C210046082000E7004D
:1008C60067082100C80048082000E700E801E71B88
:1008D600E80367082100C602200068082100C73B1C
:1008E600480803197A2C2E309C316324803121006C
:1008F60048088D31BA258031200046082100AC0019
:10090600200047082100AD00200048082100AE0065
:100916002C082000B90021002D082000BA00210073
:100926002E082000BB00210043082000B60021004D
:1009360044082000B700210045082000B800933184
:100946001D23803120003608CF003708D000380834
:10095600D100923196228031200052082100C20037
:10096600200051082100C100200050082100C000CD
:1009760020004F082100BF00FF302000E700670875
:100986002100C807480A0319742D48082000E7000B
:10099600E801E735E80DE735E80D413067078400E3
:1009A6008730683D8500003FA000013FA100023F5F
:1009B600A200033FA300210042082000A700210057
:1009C60041082000A600210040082000A5002100C3
:1009D6003F082000A40091310D218031200023081A
:1009E6002100BE00200022082100BD0020002108B1
:1009F6002100BC00200020082100BB0000302000A0
:100A0600B1000030B0000030AF000A30AE00210067
:100A16003E082000B50021003D082000B40021005A
:100A26003C082000B30021003B082000B2009E31A4
:100A3600EA268031200031082100BE00200030085F
:100A46002100BD0020002F082100BC0020002E0838
:100A56002100BB003B08303E9C31632480312100DD
:100A660048082000E700E801E735E80DE735E80D1E
:100A76004130670784008730683D8500003FAE003F
:100A8600013FAF00023FB000033FB1002100420822
:100A96002000B500210041082000B40021004008D4
:100AA6002000B30021003F082000B2009E31EA2654
:100AB6008031200031082100C200200030082100CA
:100AC600C10020002F082100C00020002E08BD2CE8
:100AD60030309C3163248031FF302100C607FF305F
:100AE600C73D46084704031944286B2D2100B71B50
:100AF600A82D360886008701403F2000E700413FC9
:100B0600E80067082100BF00200068082100C00037
:100B1600890D893B8909C100C20002302000E70027
:100B260067082100B607C21FBF2D0330B704003087
:100B3600B804BF09C009C109C209BF0A0319C00A1E
:100B46000319C10A0319C20ABF2D36088600870198
:100B5600403F2000E700413FE80067082100BF0052
:100B6600200068082100C000C101C2010230200037
:100B7600E70067082100B60746084704031D422E12
:100B86004208410440043F04031D422E0130C607BB
:100B96000030C73D422EC801C80A0A30480603196C
:100BA6004B2E48082000E700E801E735E80DE73559
:100BB600E80D4130670784008730683D8500003FB7
:100BC600E900013FEA00023FEB00033FEC006C083E
:100BD60021004202031DFF2D20006B082100410267
:100BE600031DFF2D20006A0821004002031DFF2D72
:100BF6002000690821003F02031C4B2E0130200013
:100C0600E70067082100C807D02DC801C80A0830C8
:100C1600480603194B2E48082000E700E801E7358F
:100C2600E80DE735E80DB730670784008730683D83
:100C36008500003FE900013FEA00023FEB00033F69
:100C4600EC006C0821004202031D392E20006B08BF
:100C560021004102031D392E20006A0821004002AE
:100C6600031D392E2000690821003F02031C4B2E6C
:100C760001302000E70067082100C8070A2E370860
:100C86008039003A0319CE2D803A0319082E4B2ECF
:100C960048082000E700E801E71BE8036808803AF7
:100CA600E90021004708803A20006902031D5F2EF3
:100CB60021004608200067020318692E2100460815
:100CC6002000E70067082100C800852E210048089B
:100CD6002000E700E801E71BE80321004708803A07
:100CE6002000E9006808803A6902031D7D2E670826
:100CF600210046020318852E21004808C600C701B8
:100D0600C61BC7030330210037052000E70000306B
:100D1600210038052000E8006708680403192B2F16
:100D26002D30282F00302000B1000030B0000030F8
:100D3600AF000A30AE00210047088500460884004F
:100D46008435850D8435850D413084078730853D92
:100D5600003F2000A000013FA100023FA200033F88
:100D6600A300210042082000A7002100410820001E
:100D7600A600210040082000A50021003F08200011
:100D8600A40091310D21803120002308B5002208EE
:100D9600B4002108B3002008B2009E31EA26803153
:100DA60020002E08303EE7006708252F47088500FB
:100DB600460884008435850D8435850DB730840753
:100DC6008730853D003F2000A000013FA100023F83
:100DD600A200033FA300210042082000A700210033
:100DE60041082000A600210040082000A50021009F
:100DF6003F082000A40091310D21803120002008F9
:100E06000F39E70067082100AF00B71A0E2FDD3053
:100E1600B0008930112FCC30B0008930B1003108D4
:100E26002000E800210030082000E70021002F08FC
:100E360020006707840068080318680A8500000810
:100E4600E90069082100C80048089C316324803104
:100E5600FF302100C607FF30C73D460A0319470A7F
:100E660003194428210037088039003A0319952EC2
:100E7600803A0319D92E272F272F08000134003472
:100E8600003400340A34003400340034643400344E
:100E960000340034E834033400340034103427348A
:100EA60000340034A03486340134003440344234F3
:100EB6000F34003480349634983400340034E134EE
:100EC600F53405340034CA349A343B340034803463
:100ED6003F340034203441340034C83442340034C2
:100EE6007A34443440341C3446345034C3344734A2
:100EF600243474344934973418344B34BC34BE34F7
:100F06004C346B346E344E340334153450347934E7
:100F1600AD346034F33449347134003480343F34B2
:100F2600CD34CC343D34D73423343C34123483347A
:100F36003A34B734D1343834C634273437343834B5
:100F460086343534C034D6343334CC342B3432344E
:100F5600703489343034E734DB342E34E5343C34B1
:100F66001E344234A2340D340134003400340034CB
:100F760010340034003400340034013400340034BA
:100F860000341034003400340034003401340034AA
:100F9600003400341034003400340034003401349A
:100FA60000340034003410344D3450344C34413461
:100FB60042345834703472346534733473342034A4
:100FC6004C344534443432343D34723465346134FF
:100FD6006434203469346E3464346934633461347F
:100FE60074346F3472342C3420344C3445344434E5
:100FF60033343D3445344D34433431343034303475
:101006003134203441344C34413452344D3431344B
:101016002C3420344C344534443434343D34453453
:101026004D34433431343034303431342034413467
:101036004C34413452344D3432340A34003443345F
:101046006F346E346634693467347534723461349F
:10105600743469346F346E342034523465346734F2
:101066003A34203409343034783425345834203432
:1010760028344D34413453344B3431343D342534E3
:1010860064342034523455344E342F34533454346B
:101096004F3450343D3425346434203441344C3498
:1010A6004534523454342F3454344834453452344D
:1010B6004D3432343D342534643429340A34003412
:1010C6005334743461347434753473342034523484
:1010D600653467343A34203409340934303478348A
:1010E6002534583420342834423455345334593452
:1010F6003D34253464342034543448344934473438
:1011060048343D3425346434203454344C344F341C
:1011160057343D34253464342034543448345234FE
:101126004D343D342534643429340A340034433490
:101136006F346E34763465347234733469346F3494
:101146006E34203472346134743465343A3409347C
:1011560030347834253478342034283425342E3409
:1011660034346634203463346F346E347634653404
:101176007234733469346F346E347334203470349B
:101186006534723420347334653463346F346E34AA
:10119600643429340A3400344D3469346334723487
:1011A6006F346334683469347034203445344D34D4
:1011B60043343134303430343134203454346534AB
:1011C6006D34703465347234613474347534723409
:1011D60065342034533465346E3473346F3472346A
:1011E6002034443465346D346F34003454346534FB
:1011F6006D347034653472346134743475347234D9
:1012060065342034683469346734683420346C3487
:1012160069346D34693474343A34093425346434A9
:101226002E3425346434203443340A3400345434A0
:1012360065346D34703465347234613474347534A5
:101246007234653420346C346F34773420346C3423
:1012560069346D34693474343A3409342534643469
:101266002E3425346434203443340A340034433471
:1012760075347234723465346E34743420345434B4
:1012860065346D3470346534723461347434753455
:10129600723465343A340934253464342E342534B2
:1012A6006434203443340A340034543468346534A6
:1012B60072346D3461346C34203468347934733468
:1012C60074346534723465347334693473343A343F
:1012D600093425346434203443340A340A3400345F
:1012E600503472346F346434753463347434203457
:1012F600493444343A340934093445344D3443349A
:101306003134303430343134253473340A340034D3
:101316004D3461346E3475346634613463347434F8
:1013260075347234653472342034493444343A3472
:10133600093430347834253458340A34003454347B
:101346006834653472346D3461346C3420346C34F2
:1013560069346D34693474343A34093409342534C3
:101366006434203443340A34003453344D34423424
:10137600753473342034543469346D3465344F34E1
:10138600753474343A3409340934253473340A34E0
:101396000034303431343234333434343534363442
:1013A60037343834393441344234433444344534A0
:1013B6004634003430343134323433343434353412
:1013C600363437343834393461346234633464340F
:1013D6006534663400345234653476346934733493
:1013E60069346F346E3420343A3409340934253480
:1013F60064340A34003444346934733461346234F6
:101406006C3465346434003445346E34613462348B
:101416006C3465346434003428346E3475346C347A
:101426006C34293400342D34313400340C34003417
:10143A002000B000300803192A2A8030AF002F0894
:10144A00A70022309031262008002000A701223070
:10145A009031262008002E000F1123009A1F6A2BB4
:10146A009A132000EF017508023E860087010108E1
:10147A00860087018101810AF5010800F218080037
:10148A007108F9007908F5007108860087010108DA
:10149A00F90079082100E700710886008701413FB9
:1014AA00F6000330F9007908F1077108EB3A031DD9
:1014BA00622AE830F9007908F100721071087006A2
:1014CA000319F21423001B140230F90079082000D2
:1014DA00EF00080023009B140230F900790820006D
:1014EA00EF00080023001B1F822A0130F900790847
:1014FA00F40704309D310925080021006C08FA0020
:10150A006B08F900FA36F90C7908230096002100D5
:10151A006B1C952A0B30F90079082000EF000800AF
:10152A000330F90079082000EF00080023001B1F90
:10153A00A62A0130F9007908F40704309D310925FB
:10154A0008009B1421006C08FA006B08F9007A085D
:10155A00F900FA0106307905FB0000307A05FC0033
:10156A00F0307B04EB0000307C04EC006B14E401E7
:10157A00E40A0230F90079082000EF00080021008F
:10158A0064030319DE2A7608860001308700403F8B
:10159A00EB00413FEC0076088600013087000130FD
:1015AA00433FE60076088600013087000130423F5B
:1015BA00E5006B082300960021006B1CEA2A05301F
:1015CA00F90079082000EF0008000330F9007908D3
:1015DA002000EF00080023001B1FFC2A0130F9003D
:1015EA007908F4071B1305309D31092508000130DD
:1015FA002100E502650A031D162B0430F90079085B
:10160A00F6070130E702031D0E2B00309D31092534
:10161A00080023009B140230F90079082000EF002B
:10162A000800210066088600870101082300960049
:10163A000130F90079082100E607080023001B1F82
:10164A00302B0130F9007908F40704309D3109255F
:10165A0023001B1308009B150830F90079082000A5
:10166A00EF0008000830F9007908EF0023009B1505
:10167A00080023001608F900210066088600870181
:10168A00790881000130F9007908E6070130E5029E
:10169A000319572B23009B120630F9007908200002
:1016AA00EF005B2B23009B169C31DF2423001B16C3
:1016BA00080000309D31092508000130F900790839
:1016CA00F40706309D310925080020006F088400C0
:1016DA000C3004020318622B98310435003E820054
:1016EA00080000302100D6000030D7000030D800B2
:1016FA00E130C90049082000A700FD3090316E2072
:10170A008B31003A0319A02B21006108031D912B8C
:10171A007230D9008930942B1630D9008A30DA0019
:10172A007330A0008930A1005A08A3005908A2000A
:10173A0080313E208B31E1302100C9004908200068
:10174A00A700FE3090316E208B31003A0319BC2B72
:10175A008B302100A0008930A1006108C900CA01AC
:10176A004908A2004A08A30080313E208B31E130AB
:10177A002100C90049082000A700FF3090316E20DF
:10178A008B31003A0319D82BEE302100A0008930A2
:10179A00A1006108C900CA014908A2004A08A300B9
:1017AA0080313E208B31E1302100C90049082000F8
:1017BA00A700013090316E208B31003A0319252C95
:1017CA0063302100A0008830A1006108C900CA0165
:1017DA004908A2004A08A3006108CB000730CB36AB
:1017EA00890BF42B4B08CC00CD014C08A4004D0802
:1017FA00A5006108CE000630CE36890B012C4E08B2
:10180A000139CF00D0014F08A6005008A70061088F
:10181A00D1000530D136890B0F2C51080139D2007D
:10182A00D3015208A8005308A90061080139D4005D
:10183A00D5015408AA005508AB0080313E208B31EF
:10184A00E1302100C90049082000A7000330903187
:10185A006E208B31003A03196A2C22302100A00035
:10186A008830A1006108C900CA014908A2004A08D3
:10187A00A3006108CB000730CB36890B412C4B08FB
:10188A00CC00CD014C08A4004D08A5006108CE008B
:10189A000630CE36890B4E2C4E080139CF00D001C6
:1018AA004F08A6005008A7006108D1000530D136BC
:1018BA00890B5C2C51080139D200D3015208A800C7
:1018CA005308A90080313E208B31E1302100C90044
:1018DA0049082000A700043090316E208B31003A6D
:1018EA000319C22C0A30210061020318AE2C003001
:1018FA002000B6008030B7003D30B800013021002A
:10190A00C9000030CA00610A8C2CC935CA0D890B7E
:10191A008A2C49082000A80021004A082000A900B2
:10192A009D31D6258B3120002808B9002908BA0034
:10193A002A08BB0093311D238B3120003608210071
:10194A00D600200037082100D700200038082100DF
:10195A00D8009A30A0008830A1006108C900CA01E5
:10196A004908A2004A08A3005608A4005708A5007F
:10197A005808A60080313E208B31E1302100C90091
:10198A0049082000A700223090316E208B31003A9E
:10199A000319EC2C21006108C9000730C936890BEC
:1019AA00D32C4908031DDD2CFE30DB008930E02CE6
:1019BA000730DB008A30DC00B830A0008930A10093
:1019CA005C08A3005B08A20080313E208B31DF3027
:1019DA002100C90049082000A700053090316E2077
:1019EA008B31003A0319372DE0302100C90049082C
:1019FA002000A700063090316E208B31210060084C
:101A0A00C9000630C936890B072D4908CA004A0899
:101A1A00E0006008C900CA0149082000B00021009E
:101A2A004A082000B1001930B2000030B3009D31DD
:101A3A0039258B31200031082100DE0020003008D2
:101A4A002100DD00F930A0008830A1005F08A20063
:101A5A00A301A21BA3035E08A5005D08A4008031B0
:101A6A003E208B31DF302100C90049082000A70041
:101A7A00073090316E208B31003A0319822DE03005
:101A8A002100C90049082000A700083090316E20C3
:101A9A008B3121006008C9000630C936890B522DE6
:101AAA004908CA004A08E0006008C900CA01490892
:101ABA002000B00021004A082000B1001930B2000D
:101ACA000030B3009D3139258B31200031082100C7
:101ADA00DE00200030082100DD001A30A000893025
:101AEA00A1005F08A200A301A21BA3035E08A50030
:101AFA005D08A40080313E208B31E1302100C9000D
:101B0A0049082000A700203090316E208B31003A1E
:101B1A0003199E2DA2302100A0008930A10061087E
:101B2A00C900CA014908A2004A08A30080313E2020
:101B3A008B31E1302100C90049082000A70021307B
:101B4A0090316E208B31003A031908005830210079
:101B5A00A0008930A1006108C900CA014908A20091
:101B6A004A08A30080313E2008002000CE00CE1F84
:101B7A00E02ECE09CE0A4E08803A123E031C642E8D
:101B8A000A30A7000030A8004E08A200A301A21B39
:101B9A00A3036430A0000030A1009F3173278D3168
:101BAA0020002108AA002008A9009031BB208D310D
:101BBA0020002708093EB0000030283DB10003305C
:101BCA00B2000030B3009D3139258D312000310833
:101BDA00850030088400903084078730853D003FB7
:101BEA00B600013FB700023FB8006430A7000030DA
:101BFA00A8004E08A900AA01A91BAA039031BB207C
:101C0A008D3120002708123EB0000030283DB10077
:101C1A000330B2000030B3009D3139258D312000E8
:101C2A003108850030088400903084078730853D6C
:101C3A00003FB900013FBA00023FBB0093311D23A8
:101C4A008D3120003608CB003708CC003808CD008B
:101C5A004E08A200A301A21BA3030A30A000003071
:101C6A00A1009F3173278D3120002108B10020087F
:101C7A00B0000330B2000030B3009D3139258D31F8
:101C8A0020003108850030088400903084078730AE
:101C9A00853D003FB600013FB700023FB8004B0840
:101CAA00B9004C08BA004D08BB0093311D2320002F
:101CBA003608C6003708C7003808C80008004E08AA
:101CCA00803A753E031CC32E4E08A200A301A21B34
:101CDA00A3030A30A0000030A1009F3173278D3181
:101CEA0020002108B1002008B0000330B200003003
:101CFA00B3009D3139258D31200031088500300827
:101D0A008400903084078730853D003FB600013F4C
:101D1A00B700023FB8000A30A7000030A8004E08FA
:101D2A00A900AA01A91BAA039031BB208D3120006A
:101D3A002708093EB0000030283DB1000330B20048
:101D4A000030B3009D3139258D31200031088500DE
:101D5A0030088400903084078730853D003FB90001
:101D6A00013FBA00023FBB0093311D232000360811
:101D7A00C6003708C7003808C80008004E08C9005E
:101D8A00CA014908B0004A08B1000330B200003065
:101D9A00B3009D31392520003108850030088400C0
:101DAA00903084078730853D003FC600013FC70059
:101DBA00023FC80008004E08803A123E031C842FD6
:101DCA000A30A7000030A8004E08A200A301A21BF7
:101DDA00A3036430A0000030A1009F3173278D3126
:101DEA0020002108AA002008A9009031BB208D31CB
:101DFA0020002708093EB0000030283DB10003301A
:101E0A00B2000030B3009D3139258D3120003108F0
:101E1A00850030088400693084078730853D003F9B
:101E2A00B600013FB700023FB8006430A700003097
:101E3A00A8004E08A900AA01A91BAA039031BB2039
:101E4A008D3120002708123EB0000030283DB10035
:101E5A000330B2000030B3009D3139258D312000A6
:101E6A003108850030088400693084078730853D51
:101E7A00003FB900013FBA00023FBB0093311D2366
:101E8A008D3120003608CB003708CC003808CD0049
:101E9A004E08A200A301A21BA3030A30A00000302F
:101EAA00A1009F3173278D3120002108B10020083D
:101EBA00B0000330B2000030B3009D3139258D31B6
:101ECA002000310885003008840069308407873093
:101EDA00853D003FB600013FB700023FB8004B08FE
:101EEA00B9004C08BA004D08BB0093311D232000ED
:101EFA003608C6003708C7003808C80008004E0868
:101F0A00803A753E031CE32F4E08A200A301A21BD0
:101F1A00A3030A30A0000030A1009F3173278D313E
:101F2A0020002108B1002008B0000330B2000030C0
:101F3A00B3009D3139258D312000310885003008E4
:101F4A008400693084078730853D003FB600013F31
:101F5A00B700023FB8000A30A7000030A8004E08B8
:101F6A00A900AA01A91BAA039031BB208D31200028
:101F7A002708093EB0000030283DB1000330B20006
:101F8A000030B3009D3139258D312000310885009C
:101F9A0030088400693084078730853D003FB900E6
:101FAA00013FBA00023FBB0093311D2320003608CF
:101FBA00C6003708C7003808C80008004E08C9001C
:101FCA00CA014908B0004A08B1000330B200003023
:101FDA00B3009D313925200031088500300884007E
:101FEA00693084078730853D003FC600013FC7003E
:061FFA00023FC8000800D0
:102006002000A6002308A5002208A400A435A50DDB
:1020160026088600013087002408C03F2508C13FF6
:102026002108A4002608023E860001308700240805
:1020360081002008A4002608033E860001308700A0
:102046002408810008002000AA000230A800280801
:10205600AE00AD012A08A8002808AB002708A80092
:102066002808AC002B30A8002808A0000230A900E0
:102076002908A1003830A2000030A3002830903192
:102086000320903120002E030319672828302000F2
:10209600A8002808A0002E30A9002908A1000130B8
:1020A6009F312D279031023020002E060319562825
:1020B6002E080319672864302D0603196728013096
:1020C600A8002808AD0745282E08031D6C280130F6
:1020D6000800003008002000AB00AA010230A8006A
:1020E6002808AC002B30A8002808A000A101A10AEE
:1020F6003830A2000030A300203090310320903108
:1021060020002708A8002808A000A101A10A38304D
:10211600A2000030A30024309E31222690312000F8
:102126002C030319B42820302000A8002808A0009A
:102136002C30A9002908A10002309F312D279031AB
:10214600023020002C060319A3282C080319B428F2
:1021560064302A060319B4280130A8002808AA0703
:1021660092282C08031DB928013008000030080009
:102176002000AD01A81FC628A709A809A70A0319A8
:10218600A80AAD01AD0AAA1FD128A909AA09A90A58
:102196000319AA0A0130AB002B08AD06AE01AF0148
:1021A6002708280403190029AC01AC0AA81BE52856
:1021B6000130A735A80D890BDC280130AB002B08B0
:1021C600AC07D9280130AE35AF0D890BE6282808B3
:1021D6002A02031DF02827082902031CF7282708CE
:1021E600A9022808AA3B2E140130A836A70C890B91
:1021F600F8280130AC02031DE5282D08031908292B
:10220600AE09AF09AE0A0319AF0A2F08A8002E08B7
:10221600A700080000302000AC000030AB00003002
:10222600AA000030A900230822042104200403196F
:102236005729AD01AD0AA31B2C290130A035A10DEC
:10224600A20DA30D890B21290130A8002808AD078E
:102256001E290130A935AA0DAB0DAC0D890B2D2910
:1022660023082702031D412922082602031D4129AE
:1022760021082502031D412920082402031C4C299C
:102286002008A4022108A53B2208A63B2308A73B59
:1022960029140130A336A20CA10CA00C890B4D29E0
:1022A6000130AD02031D2C292C08A3002B08A20027
:1022B6002A08A1002908A0000800CB302000ED0064
:1022C6006D08A700003090316E209131003A031955
:1022D6000800CC302000ED006D08A70002309031D8
:1022E6006E20913121004C082000ED000630ED36BD
:1022F600890B7A296D08EE006E082100CC00CB1FF1
:102306008C294C03FF3A033E2000ED006D082100A6
:10231600CC004C082000ED00EE016D08B0006E0800
:10232600B1001930B2000030B3009D31392591312A
:10233600200031082100CA00200030082100C90011
:102346003A30A0008930A1004B08A200A301A21BCD
:10235600A3034A08A5004908A40080313E200800CE
:10236600200023080319BC29220821042004031D88
:10237600CD290030A0000030A1000030A2000800E6
:102386000130A5002508A3070130A236A10CA00C38
:10239600890BC829FE3022050319E629C329013015
:1023A600A5002508A3070130A00700300318013057
:1023B600A107003003180130A2070130A236A10C94
:1023C600A00C890BE129FF3022050319F329D22934
:1023D6000130A3020130A035A10DA20D890BEE2913
:1023E600A11BF929023023020318EB292318012A1D
:1023F600FF30A0057F30A105FF30A2050310A30C16
:102406002308A500A601A7011030A535A60DA70D26
:10241600890B082A2508A0042608A1042708A20477
:10242600240803190800A21708009C31AA24923137
:102436008B170B17200016109610161196110530E3
:102446009C31C22492311E309C3195249231033046
:102456009C318B24923100308A311D22923100301A
:102466009D317325923100309D3194259231003093
:102476009D31B525923119302100E2006208200015
:10248600B0001D309E314E2692314B302100E200C5
:1024960062082000B0001A309E317E269231193033
:1024A6002100A0008A30A10080313E209231CF3039
:1024B6002000A5008830A6009C31B6249231D73082
:1024C6002000A5008730A6009C31B624923120005A
:1024D60016148B317623923191316021923120008E
:1024E600161003108C1F0314031C7C2A200096145C
:1024F6007E2A2000961003100C1F0314031C862A44
:1025060020001615882A2000161102302100E3004B
:102516004530E200A930890B8E2AE20B8E2AE30BA6
:102526008E2A0032522A20004F08D3005008D400C9
:102536005108D5000310540D550DD6005608DC0081
:102546005C08031DAF2A0030D2000030D1000030F5
:10255600D0000030CF0008004F08D3005008D40048
:102566005108D5001730D536D40CD30C890BB62AB2
:102576005308D6005608D700D017FF30CF05FF30D6
:10258600D0050030D1054F08D8005008D9005108B1
:10259600DA00DB018E30DC02DC1FED2A5C08803AB3
:1025A6008F3E0318DF2A0030D2000030D100003001
:1025B600D0000030CF0008000130DB36DA0CD90C31
:1025C600D80C890BE02A0130D3005308DC07031925
:1025D600062BDF2A18305C02031C032B0030D200C6
:1025E6000030D1000030D0000030CF0008000130AC
:1025F600D835D90DDA0DDB0D890BFB2A0130DC024B
:102606005C08031DFA2A57080319142BD809D9099F
:10261600DA09DB09D80A0319D90A0319DA0A0319F0
:10262600DB0A5B08D2005A08D1005908D0005808C6
:10263600CF00080020003608BC003708BD00380867
:10264600BE0003103D0D3E0DBF003F08C000400810
:10265600031D342B0030B6000030B7000030B80040
:1026660008003908BC003A08BD003B08BE0003104C
:102676003D0D3E0DBF003F08C5004508031D4A2B12
:102686000030B6000030B7000030B800080045083A
:102696007B3EBC003C08C0073608BC003708BD00BE
:1026A6003808BE001030BE36BD0CBC0C890B562B4C
:1026B6003C08BF003F08C5003908BC003A08BD0009
:1026C6003B08BE001030BE36BD0CBC0C890B662B19
:1026D6003C08BF003F08C5068030BC003C08C50565
:1026E600B717BA17FF30B905FF30BA050030BB057A
:1026F6000030C1000030C2000030C3000730BC000B
:102706003C08C400361C8D2B3908C1073A08C23D67
:102716003B08C33D0130B836B70CB60C890B8E2B7F
:102726000130B935BA0DBB0D890B942B0130C402AB
:10273600031D852B0930BC003C08C400361CA92BA0
:102746003908C1073A08C23D3B08C33D0130B836D7
:10275600B70CB60C890BAA2B0130C336C20CC10CC0
:10276600890BB02B0130C402031DA12B4108A00028
:102776004208A1004308A2004008BC003C08A30090
:102786004508BD003D08A4009131B3212000200872
:10279600B6002108B7002208B8000800200020086B
:1027A600A6002108A7002208A8000310270D280D5F
:1027B600A9002908AF002F08031DEA2B0030A3004B
:1027C6000030A2000030A1000030A000080023085D
:1027D600A6002408A7002508A8000310270D280D29
:1027E600A9002908AE002E08031D022C0030A30004
:1027F6000030A2000030A1000030A0000800A117A0
:10280600FF30A005FF30A1050030A205A417FF3058
:10281600A305FF30A4050030A5050030AD0000304B
:10282600AC000030AB000030AA007F30AF02983019
:102836002E07A6002608AF021830A6002608AE000E
:102846000130AA35AB0DAC0DAD0D890B242C250836
:102856002202031D342C24082102031D342C2308D4
:102866002002031C3D2C2308A0022408A13B2508B6
:10287600A23B2A140130A035A10DA20D890B3E2CD6
:102886000130AE02031D232CAF1F652C2F08803AA2
:10289600973E0318572C0030A3000030A2000030EA
:1028A600A1000030A00008000130AD36AC0CAB0C26
:1028B600AA0C890B582C0130A6002608AF0703196D
:1028C6007E2C572C18302F02031C7B2C0030A300C3
:1028D6000030A2000030A1000030A0000800013046
:1028E600AA35AB0DAC0DAD0D890B732C0130AF02C3
:1028F6002F08031D722C2D08A3002C08A2002B08FC
:10290600A1002A08A000080020005408DA00550893
:10291600DB005608DC0003105B0D5C0DDD005D0876
:10292600E0005708DA005808DB005908DC000310FD
:102936005B0D5C0DDD005D08DF0060080319AF2C40
:102946005F0860020318B62C6003FF3A5F07DA00DF
:1029560019305A02031CB62C5708D4005808D50063
:102966005908D60008005F080319080060085F02CE
:102976000318C52C5F03FF3A6007DA0019305A02C4
:10298600031808000630DA005A08DE00D61BDE17E8
:10299600D91B5E17D517FF30D405FF30D50500309B
:1029A600D605D817FF30D705FF30D8050030D90532
:1029B6005F0860020318012D0130D735D80DD90DF7
:1029C600890BE02C0130DF025F0860060319FC2C3E
:1029D6000130DE025E0807390319FC2CDF2C0130BA
:1029E600D636D50CD40C890BF32C0130DA005A08F4
:1029F600E00760085F060319262DF22C60085F02C7
:102A06000318262D0130D435D50DD60D890B062D8C
:102A16000130E0025F0860060319222D0130DE0254
:102A26005E0807390319222D052D0130D936D80C39
:102A3600D70C890B192D0130DA005A08DF07600818
:102A46005F06031D182DDE1F382DFF30D406FF301C
:102A5600D506FF30D6060130D40700300318013002
:102A6600D507003003180130D6075E1F4A2DFF3008
:102A7600D706FF30D806FF30D9060130D707003019
:102A860003180130D807003003180130D907DE01DA
:102A96005408D7075508D83D5608D93DD91F652D86
:102AA600FF30D706FF30D806FF30D9060130D707EA
:102AB600003003180130D807003003180130D90759
:102AC600DE01DE0A5708A0005808A1005908A20036
:102AD6006008DA005A08A3005E08DB005B08A40061
:102AE6009131B32120002008D4002108D500220806
:102AF600D6000800203086008701403F2000A6004F
:102B0600413FA700423FA800433FA9000310280DFC
:102B1600290DAA002A08B3003308031D9B2D003097
:102B2600A3000030A2000030A1000030A000080081
:102B3600233086008701403FA600413FA700423F61
:102B4600A800433FA9000310280D290DAA002A0852
:102B5600B2003208031DB82D0030A3000030A200D9
:102B66000030A1000030A000080020308600870158
:102B760000308104413100308104413180308104CC
:102B8600413100308104203086008701FF30810505
:102B96004131FF3081054131FF308105413100303F
:102BA60081052330860087010030810441310030E1
:102BB6008104413180308104413100308104233069
:102BC60086008701FF3081054131FF3081054131A3
:102BD600FF3081054131003081050030B100003001
:102BE600B0000030AF000030AE007F30B302A0303E
:102BF6003207A6002608B3022030A6002608B20037
:102C06000130AE35AF0DB00DB10D890B042E23305A
:102C160086008701403FA600413FA700423FA8002B
:102C2600433FA900203086008701403FAA00413F6C
:102C3600AB00423FAC00433FAD0029082D02031D07
:102C46002E2E28082C02031D2E2E27082B02031DCC
:102C56002E2E26082A02031C4B2E233086008701BF
:102C6600403FA600413FA700423FA800433FA900BE
:102C76002030860087012608810241312708813BE2
:102C860041312808813B41312908813B7D312E1491
:102C960020308600870181354131810D4131810D1A
:102CA6004131810D7D310130B202031D032EB31F68
:102CB600782E3308803A9F3E03186A2E0030A30010
:102CC6000030A2000030A1000030A0000800013052
:102CD600B136B00CAF0CAE0C890B6B2E0130A600D2
:102CE6002608B3070319912E6A2E20303302031CDF
:102CF6008E2E0030A3000030A2000030A10000306C
:102D0600A00008000130AE35AF0DB00DB10D890B36
:102D1600862E0130B3023308031D852E3108A30029
:102D26003008A2002F08A1002E08A00008002000ED
:102D3600D3006E305302031C5B2F0A30A70000300D
:102D4600A8005308C900CA014908A2004A08A300FE
:102D56006430A0000030A1009F3173279631200017
:102D66002108AA002008A9009031BB209631200036
:102D76002708093EB0000030283DB1000330B200FC
:102D86000030B3009D313925963120003108850089
:102D960030088400903084078730853D003FB600B8
:102DA600013FB700023FB8006430A7000030A8001A
:102DB6005308CB00CC014B08A9004C08AA0090315F
:102DC600BB20963120002708123EB0000030283D77
:102DD600B1000330B2000030B3009D313925963181
:102DE6002000310885003008840090308407873041
:102DF600853D003FB900013FBA00023FBB00933159
:102E06001D23963120003608D0003708D100380837
:102E1600D2005308C900CA014908A2004A08A30003
:102E26000A30A0000030A1009F31732796312000A0
:102E36002108B1002008B0000330B2000030B30012
:102E46009D313925963120003108850030088400EF
:102E5600903084078730853D003FB600013FB700BC
:102E6600023FB8005008B9005108BA005208BB002A
:102E760093311D23963120003608CD003708CE0049
:102E86003808CF000030B6000030B7003F30B80039
:102E96004D08B9004E08BA004F08BB0093311D23F8
:102EA60020003608C6003708C7003808C8000800E2
:102EB6000B305302031CD32F5308C900CA0149081B
:102EC600A2004A08A3000A30A0000030A1009F31EA
:102ED6007327963120002108B1002008B000033086
:102EE600B2000030B3009D313925963120003108FB
:102EF600850030088400903084078730853D003F88
:102F0600B600013FB700023FB8000A30A700003004
:102F1600A8005308CB00CC014B08A9004C08AA0016
:102F26009031BB20963120002708093EB0000030C2
:102F3600283DB1000330B2000030B3009D31392581
:102F460096312000310885003008840090308407CF
:102F56008730853D003FB900013FBA00023FBB0004
:102F660093311D23963120003608D0003708D10052
:102F76003808D2000030B6000030B7003F30B80045
:102F86005008B9005108BA005208BB0093311D23FE
:102F960020003608C6003708C7003808C8000800F1
:102FA6000030B6000030B7003F30B8005308C90003
:102FB600CA014908B0004A08B1000330B200003027
:102FC600B3009D313925963120003108850030083F
:102FD6008400903084078730853D003FB900013F6B
:102FE600BA00023FBB0093311D2320003608C600FD
:102FF6003708C7003808C80008008A31432A8A31D2
:103006006F2A8A31C42A8A31F02A8B315E2B8B31A2
:10301600232B8B31372B8B315E2B8B313E2B8B3118
:0A302600622B8A31772A8A319B2A37
:1038C6002000A10021089C318124080064008001A9
:1038D6000131890B6A2C00342000220821042004BF
:1038E600031908008030A2060800623031008D00FE
:1038F6008F01910102309300920108002000A00080
:103906002E000F1E832C2000200822009A0008009B
:103916002000B0003008AF002F08A70021309031FA
:10392600262008002000B0003008AF002F08A700AE
:103936002030903126200800083022009F00803079
:103946009D0024309E0019309B009C0108009F3189
:10395600B9279C319C3178249C319D3121259C319D
:103966009C319F24080020002608A3002508A200F9
:103976009C31F2249C310A309C31632408002000DB
:10398600B0000A303002031808003008AF002F08D4
:10399600A70004309031262008002000A100A001D5
:1039A6003A3021020318DD2C30302102031CDD2CB5
:1039B600A001A00A200C08000430F7007708F607DB
:1039C60001302100E702031DEE2C0430F7007708D2
:1039D6002000EF0008002000EF01EF0A0800200099
:1039E600220884002308850012000319080020001D
:1039F600220884002308850000089C3163249C313A
:103A060001302000A2070030A33DF22CF80023006D
:103A16001B157508023E86008701010803191E2D35
:103A26007808F7007508023E8600870101088600BF
:103A36008701770881002000EF010800E8302000A8
:103A4600A0002008F100E830A0002008F000F214E1
:103A56007210F40180302300990028309A009C01EE
:103A6600043097002E000F11191508002000B4012C
:103A7600B501301C422D3208B4073308B53D01307C
:103A8600B235B30D890B432D0130B136B00C890B1D
:103A9600482D30083104031D3C2D3508B10034088B
:103AA600B0000800200063086204610403195D2D5C
:103AB6008030E3066408D4006508D5006608D600A1
:103AC6006108D7006208D8006308D90094318724BA
:103AD60020005408E1005508E2005608E3000800FB
:103AE6002000B0003130AF002F08A700033090311E
:103AF6006E209D312000300803198A2D3108803848
:103B0600AF002F08A70003309031262008002000C0
:103B160031087F39AF002F08A700033090312620E7
:103B260008002000B0003130AF002F08A700033096
:103B360090316E209D31200030080319AB2D3108DD
:103B46004038AF002F08A700033090312620080028
:103B560020003108BF39AF002F08A700033090318D
:103B6600262008002000B0003130AF002F08A70043
:103B7600033090316E209D31200030080319CC2D82
:103B860031082038AF002F08A700033090312620D7
:103B9600080020003108DF39AF002F08A7000330E6
:103BA6009031262008002000AD01A91FE12DA809AB
:103BB600A909A80A0319A90AAD01AD0A2808A00097
:103BC6002908A100A2018E30AB002B08A3002D0806
:103BD600AC002C08A4009131B32120002008A800D5
:103BE6002108A9002208AA0008008E302000AC0097
:103BF6002C08AD00FF302B0503190D2E0130AB3616
:103C0600AA0CA90CA80C890B022E0130AC002C08BA
:103C1600AD07FD2D2808A0002908A1002A08A2004A
:103C26002D08AC002C08A300A4019131B32120007B
:103C36002008A8002108A9002208AA0008002000E0
:103C4600A6002308A5002208A400A435A50D260871
:103C56008600013087002408C03F2508C13F26089A
:103C66008600013087000130810441310030810433
:103C76002108A4002608023E860001308700240899
:103C860081002008A4002608033E86000130870034
:103C96002408810008002000B5003508B10031086D
:103CA600A7000530903126209E31200030080319E8
:103CB600762E1930A7000030A8003008B100B201F6
:103CC6003108A9003208AA009031BB209E3120009D
:103CD6002708B3000530B335FF3E031D6E2E33357E
:103CE600B4003408B0003008B1003108A70006302F
:103CF6009031262008002000B5003508B1003108B3
:103D0600A7000730903126209E3120003008031985
:103D1600A62E1930A7000030A8003008B100B20165
:103D26003108A9003208AA009031BB209E3120003C
:103D36002708B3000530B335FF3E031D9E2E3335ED
:103D4600B4003408B0003008B1003108A7000830CC
:103D56009031262008002000A21FC52E2009A600AB
:103D66002109A7002209A800A60A0319A70A031910
:103D7600A80A00302607A0000030273DA1008030A9
:103D8600283DA200A51FDB2E2309A6002409A700B3
:103D96002509A800A60A0319A70A0319A80A0030CC
:103DA6002607A3000030273DA4008030283DA5004B
:103DB6008030A2068030A50625082202031D0800D1
:103DC60024082102031D0800230820020800200001
:103DD600310830042F042E040319242FB701B70A23
:103DE600B11B012F0130AE35AF0DB00DB10D890BF2
:103DF600F62E0130B6003608B707F32E3108350225
:103E0600031D0F2F30083402031D0F2F2F08330216
:103E1600031D0F2F2E083202031C192F2E08B20283
:103E26002F08B33B3008B43B3108B53B0130B136FF
:103E3600B00CAF0CAE0C890B1A2F0130B702031D64
:103E4600012F3508B1003408B0003308AF0032083E
:103E5600AE0008002000A3007218612F0230A200F5
:103E6600210886008701220881002008A200700A26
:103E760086008701220881002308A20070088600B8
:103E86008701220881002108A2007008023E8600F0
:103E96008701220881000330A2002208F00770087B
:103EA600EB3A031D5A2FE830A2002208F000F21068
:103EB60071087006031D662F7214662F210886008E
:103EC60087018101810A21088600870102300106E7
:103ED600031D08006F08031D6D2F2E000F15080027
:103EE6002000A601A31F7E2FA209A309A20A031977
:103EF600A30AA601A60AA11F852FA009A109A00A47
:103F06000319A10A200821040319AC2FA501A50A4B
:103F1600A11B972F0130A035A10D890B8E2F0130E3
:103F2600A4002408A5078B2F21082302031D9D2F1B
:103F360020082202031CA32F2008A2022108A33B6B
:103F46000130A136A00C890BA42F0130A502031D58
:103F5600972F26080319B42FA209A309A20A031949
:103F6600A30A2308A1002208A00008002000960149
:103F7600970101309800F0309100FF309200FE303A
:103F86009300E7303E00CE00FF30C3003030B8006B
:103F96000830E500FF30C400F030B900E730CF004C
:103FA600BA01C501D00100308B1B01302000A000F2
:103FB6008B1355303D008F00AA308F000F10103044
:103FC6003E00A0001730A3003D004908E039133831
:103FD600C9004808E0391438C80016303E00A4006D
:103FE60055303D008F00AA308F000F142000201C92
:0A3FF600FE2F8B1708008B13080044
:020000040001F9
:0A000E00EC3FFF3B9F3FFF3FFF3F29
:00000001FF
