:08000000803102288731F92F3D
:100E900025009417080025009A1708008731A2271B
:100EA0008731512F633031008D008F019101023065
:100EB0009300920108008030270092006730910073
:100EC000C0309000303024009F040800803027009C
:100ED0008E0066308D00C0308C0024001F08F3396E
:100EE00008389F000800403025009400013096002B
:100EF00095019701CE30930092012E009011873119
:100F000048270800403025009A0001309C009B01D2
:100F10009D01CF30990098012E00901287314B2708
:100F200008003C00910118309200193093009401A0
:100F300095010230960008309700980199018030A1
:100F4000900008008731B7278731873152278731D2
:100F5000873166278731873182278731873191270B
:100F6000873187317327873187315B27080020005D
:100F7000960197019801FC309100FF309200FF30FC
:100F80009300DF303E00CE007F30C300FE30B8005B
:100F90000830E500FF30C400FF30B900FF30CF005B
:100FA000BA01C501D00100308B1B0130F4008B1356
:100FB00055303D008F00AA308F000F101E08E03919
:100FC0000F389E001D08E03915389D0001303E00A5
:100FD000910001309000E0303D00BB0555308F009E
:100FE000AA308F000F14741CF72F8B1708008B1377
:100FF0000800F001F101F201F301200087314E2FCA
:020000040001F9
:0A000E00EC3FFF3B9F3FFF1FFF3F49
:00000001FF
