:08000000803102288731FD2F39
:100E3A0087313F270800F10071088731252708000C
:100E4A00F0002E000F1E262F700822009A000800BC
:100E5A00623031008D008F019101023093009201BE
:100E6A00080087316F27873187312D2787318731EE
:100E7A00492708002E008F1E3F2F22009D1C472F56
:100E8A001D121D1619080800093022009F00903013
:100E9A009D0024309E000C309B009C010800743099
:100EAA00F4007408F7007308F5007208F400F20AF7
:100EBA000319F30A74088400750885000008F6000F
:100ECA007608F8007808031908007808873120277F
:100EDA008731582F2000960197019801F030910030
:100EEA00FF309200FE309300FD303E00CE00FF300E
:100EFA00C300FF30B800E501C401B901CF01BA014E
:100F0A00C501D00100308B1B0130F0008B13553026
:100F1A003D008F00AA308F000F1010303E00A00055
:100F2A003D004B08E0391138CB0055308F00AA300C
:100F3A008F000F14701CA32F8B1708008B13080047
:100F4A00873136278731EC2F03102000161C031433
:100F5A00031CB22F20001614B42F200016102430C0
:100F6A00F2008830E82F03102000961C0314031C9B
:100F7A00C12F20009614C32F200096103430F2009F
:100F8A008830E82F03102000161D0314031CD02FED
:100F9A0020001615D22F200016114430F200883096
:100FAA00E82F03102000961D0314031CDF2F2000D6
:100FBA009615E12F200096115430F2008830E82F60
:100FCA000030F2008830F3008731542787318731A7
:100FDA001D278731313A0319A92F033A0319B82F6C
:100FEA00013A0319C72F073A0319D62FE52FEC2F19
:100FFA0020008731A52F0A3454347934703465348B
:10100A00203431342C3432342C3433342C342034DC
:10101A006F34723420343434203474346F342034CE
:10102A0074346F34673467346C34653420344C3428
:10103A00453444347334203420340A34003454346C
:10104A006F34673467346C346534643420344C3418
:10105A00453444342034443432340A340034543469
:10106A006F34673467346C346534643420344C34F8
:10107A00453444342034443433340A340034543448
:10108A006F34673467346C346534643420344C34D8
:10109A00453444342034443434340A340034543427
:1010AA006F34673467346C346534643420344C34B8
:0E10BA00453444342034443435340A34003490
:020000040001F9
:0A000E00EC3FFF3B9F3FFF3FFF3F29
:00000001FF
