:020000040000fa
:080000000002040000000000f2
:020000040000fa
:0400080004030000ed
:020000040000fa
:04000c003a040000b2
:020000040000fa
:040010004c0400009c
:020000040000fa
:0400140042040000a2
:020000040000fa
:04001800540400008c
:020000040000fa
:04001c0004030000d9
:020000040000fa
:0400200004030000d5
:020000040000fa
:0400240004030000d1
:020000040000fa
:0400280004030000cd
:020000040000fa
:04002c0004030000c9
:020000040000fa
:0400300004030000c5
:020000040000fa
:0400340004030000c1
:020000040000fa
:0400380004030000bd
:020000040000fa
:04003c0004030000b9
:020000040000fa
:0400400004030000b5
:020000040000fa
:0400440004030000b1
:020000040000fa
:0400480004030000ad
:020000040000fa
:04004c0004030000a9
:020000040000fa
:0400500004030000a5
:020000040000fa
:0400540004030000a1
:020000040000fa
:04005800040300009d
:020000040000fa
:04005c000403000099
:020000040000fa
:040060000403000095
:020000040000fa
:040064000403000091
:020000040000fa
:04006800040300008d
:020000040000fa
:04006c000403000089
:020000040000fa
:040070000403000085
:020000040000fa
:040074000403000081
:020000040000fa
:04007800040300007d
:020000040000fa
:04007c000403000079
:020000040000fa
:040080000403000075
:020000040000fa
:040084000403000071
:020000040000fa
:04008800040300006d
:020000040000fa
:04008c000403000069
:020000040000fa
:040090000403000065
:020000040000fa
:040094000403000061
:020000040000fa
:04009800040300005d
:020000040000fa
:04009c000403000059
:020000040000fa
:0400a0000403000055
:020000040000fa
:0400a4000403000051
:020000040000fa
:0400a800040300004d
:020000040000fa
:0400ac000403000049
:020000040000fa
:0400b0000403000045
:020000040000fa
:0400b4000403000041
:020000040000fa
:0400b800040300003d
:020000040000fa
:0400bc000403000039
:020000040000fa
:0400c0000403000035
:020000040000fa
:0400c4000403000031
:020000040000fa
:0400c800040300002d
:020000040000fa
:0400cc000403000029
:020000040000fa
:0400d0000403000025
:020000040000fa
:0400d4000403000021
:020000040000fa
:0400d800040300001d
:020000040000fa
:0400dc000403000019
:020000040000fa
:0400e0000403000015
:020000040000fa
:0400e4000403000011
:020000040000fa
:0400e800040300000d
:020000040000fa
:0400ec000403000009
:020000040000fa
:0400f0000403000005
:020000040000fa
:0400f4000403000001
:020000040000fa
:0400f80004030000fd
:020000040000fa
:0400fc0004030000f9
:020000040000fa
:0401000004030000f4
:020000040000fa
:0401040004030000f0
:020000040000fa
:0401080004030000ec
:020000040000fa
:04010c0004030000e8
:020000040000fa
:0401100004030000e4
:020000040000fa
:0401140004030000e0
:020000040000fa
:0401180004030000dc
:020000040000fa
:04011c0004030000d8
:020000040000fa
:0401200004030000d4
:020000040000fa
:0401240004030000d0
:020000040000fa
:0401280004030000cc
:020000040000fa
:04012c0004030000c8
:020000040000fa
:0401300004030000c4
:020000040000fa
:0401340004030000c0
:020000040000fa
:0401380004030000bc
:020000040000fa
:04013c0004030000b8
:020000040000fa
:0401400004030000b4
:020000040000fa
:0401440004030000b0
:020000040000fa
:0401480004030000ac
:020000040000fa
:04014c0004030000a8
:020000040000fa
:0401500004030000a4
:020000040000fa
:0401540004030000a0
:020000040000fa
:04015800040300009c
:020000040000fa
:04015c000403000098
:020000040000fa
:040160000403000094
:020000040000fa
:040164000403000090
:020000040000fa
:04016800040300008c
:020000040000fa
:04016c000403000088
:020000040000fa
:040170000403000084
:020000040000fa
:040174000403000080
:020000040000fa
:04017800040300007c
:020000040000fa
:04017c000403000078
:020000040000fa
:040180000403000074
:020000040000fa
:040184000403000070
:020000040000fa
:04018800040300006c
:020000040000fa
:04018c000403000068
:020000040000fa
:040190000403000064
:020000040000fa
:040194000403000060
:020000040000fa
:04019800040300005c
:020000040000fa
:04019c000403000058
:020000040000fa
:0401a0000403000054
:020000040000fa
:0401a4000403000050
:020000040000fa
:0401a800040300004c
:020000040000fa
:0401ac000403000048
:020000040000fa
:0401b0000403000044
:020000040000fa
:0401b4000403000040
:020000040000fa
:0401b800040300003c
:020000040000fa
:0401bc000403000038
:020000040000fa
:0401c0000403000034
:020000040000fa
:0401c4000403000030
:020000040000fa
:0401c800040300002c
:020000040000fa
:0401cc000403000028
:020000040000fa
:0401d0000403000024
:020000040000fa
:0401d4000403000020
:020000040000fa
:0401d800040300001c
:020000040000fa
:0401dc000403000018
:020000040000fa
:0401e0000403000014
:020000040000fa
:0401e4000403000010
:020000040000fa
:0401e800040300000c
:020000040000fa
:0401ec000403000008
:020000040000fa
:0401f0000403000004
:020000040000fa
:0401f4000403000000
:020000040000fa
:0401f80004030000fc
:020000040000fa
:0401fc0004030000f8
:020000040000fa
:0402080004030000eb
:020000040000fa
:04020c0004030000e7
:020000040000fa
:0402100004030000e3
:020000040000fa
:0402140004030000df
:020000040000fa
:0402180004030000db
:020000040000fa
:04021c0004030000d7
:020000040000fa
:0402200004030000d3
:020000040000fa
:0402240004030000cf
:020000040000fa
:0402280004030000cb
:020000040000fa
:04022c0004030000c7
:020000040000fa
:0402300004030000c3
:020000040000fa
:0402340004030000bf
:020000040000fa
:0402380004030000bb
:020000040000fa
:04023c0004030000b7
:020000040000fa
:0402400004030000b3
:020000040000fa
:0402440004030000af
:020000040000fa
:0402480004030000ab
:020000040000fa
:04024c0004030000a7
:020000040000fa
:0402500004030000a3
:020000040000fa
:04025400040300009f
:020000040000fa
:04025800040300009b
:020000040000fa
:04025c000403000097
:020000040000fa
:040260000403000093
:020000040000fa
:04026400040300008f
:020000040000fa
:04026800040300008b
:020000040000fa
:04026c000403000087
:020000040000fa
:040270000403000083
:020000040000fa
:04027400040300007f
:020000040000fa
:04027800040300007b
:020000040000fa
:04027c000403000077
:020000040000fa
:040280000403000073
:020000040000fa
:04028400040300006f
:020000040000fa
:04028800040300006b
:020000040000fa
:04028c000403000067
:020000040000fa
:040290000403000063
:020000040000fa
:04029400040300005f
:020000040000fa
:04029800040300005b
:020000040000fa
:04029c000403000057
:020000040000fa
:0402a0000403000053
:020000040000fa
:0402a400040300004f
:020000040000fa
:0402a800040300004b
:020000040000fa
:0402ac000403000047
:020000040000fa
:0402b0000403000043
:020000040000fa
:0402b400040300003f
:020000040000fa
:0402b800040300003b
:020000040000fa
:0402bc000403000037
:020000040000fa
:0402c0000403000033
:020000040000fa
:0402c400040300002f
:020000040000fa
:0402c800040300002b
:020000040000fa
:0402cc000403000027
:020000040000fa
:0402d0000403000023
:020000040000fa
:0402d400040300001f
:020000040000fa
:0402d800040300001b
:020000040000fa
:0402dc000403000017
:020000040000fa
:0402e0000403000013
:020000040000fa
:0402e400040300000f
:020000040000fa
:0402e800040300000b
:020000040000fa
:0402ec000403000007
:020000040000fa
:0402f0000403000003
:020000040000fa
:0402f40004030000ff
:020000040000fa
:0402f80004030000fb
:020000040000fa
:0402fc0004030000f7
:020000040000fa
:0403000004030000f2
:020000040000fa
:0403040004030000ee
:020000040000fa
:0403080004030000ea
:020000040000fa
:04030c0004030000e6
:020000040000fa
:0403100004030000e2
:020000040000fa
:0403140004030000de
:020000040000fa
:0403180004030000da
:020000040000fa
:04031c0004030000d6
:020000040000fa
:0403200004030000d2
:020000040000fa
:0403240004030000ce
:020000040000fa
:0403280004030000ca
:020000040000fa
:04032c0004030000c6
:020000040000fa
:0403300004030000c2
:020000040000fa
:0403340004030000be
:020000040000fa
:0403380004030000ba
:020000040000fa
:04033c0004030000b6
:020000040000fa
:0403400004030000b2
:020000040000fa
:0403440004030000ae
:020000040000fa
:0403480004030000aa
:020000040000fa
:04034c0004030000a6
:020000040000fa
:0403500004030000a2
:020000040000fa
:04035400040300009e
:020000040000fa
:04035800040300009a
:020000040000fa
:04035c000403000096
:020000040000fa
:040360000403000092
:020000040000fa
:04036400040300008e
:020000040000fa
:04036800040300008a
:020000040000fa
:04036c000403000086
:020000040000fa
:040370000403000082
:020000040000fa
:04037400040300007e
:020000040000fa
:04037800040300007a
:020000040000fa
:04037c000403000076
:020000040000fa
:040380000403000072
:020000040000fa
:04038400040300006e
:020000040000fa
:04038800040300006a
:020000040000fa
:04038c000403000066
:020000040000fa
:040390000403000062
:020000040000fa
:04039400040300005e
:020000040000fa
:04039800040300005a
:020000040000fa
:04039c000403000056
:020000040000fa
:0403a0000403000052
:020000040000fa
:0403a400040300004e
:020000040000fa
:0403a800040300004a
:020000040000fa
:0403ac000403000046
:020000040000fa
:0403b0000403000042
:020000040000fa
:0403b400040300003e
:020000040000fa
:0403b800040300003a
:020000040000fa
:0403bc000403000036
:020000040000fa
:0403c0000403000032
:020000040000fa
:0403c400040300002e
:020000040000fa
:0403c800040300002a
:020000040000fa
:0403cc000403000026
:020000040000fa
:0403d0000403000022
:020000040000fa
:0403d400040300001e
:020000040000fa
:0403d800040300001a
:020000040000fa
:0403dc000403000016
:020000040000fa
:0403e0000403000012
:020000040000fa
:0403e400040300000e
:020000040000fa
:0403e800040300000a
:020000040000fa
:0403ec000403000006
:020000040000fa
:0403f0000403000002
:020000040000fa
:0403f40004030000fe
:020000040000fa
:0403f80004030000fa
:020000040000fa
:0403fc0004030000f6
:020000040000fa
:100400002f8220000e7f22000e01880000000000d5
:10041000000020000000e000020032000001200087
:100420002002880014000700790007000000e000a7
:1004300003003a00c04d20000100200002003700f8
:100440000000200001002000810f70000100320038
:1004500014000700000020000000e000020032004d
:1004600000000200000000000a030200000000007b
:100470000040da000000fe004440a90020002000f7
:100480000000e0000300320010002000900188000e
:100490004440a800000006008a1f78008b1f7800e7
:1004a00000000600a1028800800478000000eb0034
:1004b0001f003700e284440054a0b4009905ba003c
:1004c000e284440054a0b4009906ba00e2844400d7
:1004d00054a0b4000006eb00476fde00fd07b20039
:1004e000ae018800636ce10003003a00eaff0700f8
:1004f0000000eb000e003700606ce10008003a00dd
:10050000004deb000a05e800020039003420ec0041
:100510000af0a0008b05e900f9ff3e000400370057
:100520006168e100010032000086eb000b0007006b
:1005300019c7ba001905ba000e04e00003003a001a
:100540000a00e000dbff3a0000000600fe07b200f0
:10055000ae0288008a047800f5ff37000cd0a300b3
:10056000e20f4d001c00390089027800354dba00b9
:100570000a05e800020039003420ec000af0a0006f
:100580008b05e9000f003200254dba000a05e8008e
:10059000020039003420ec000af0a0008b05e900cd
:1005a000080032000c00e0000600320015cdba0051
:1005b0000a05e800020039003420ec000af0a0002f
:1005c0008b05e9008984e80054a0b4000b00e0002a
:1005d000e2ff3a00000006009902ba00055d7800cb
:1005e0008b05e900f7ff3200c82ade00055d7800c0
:1005f0008b05e900f3ff32000c00e000f1ff320050
:1006000019ddba00eeff37000040da000000fe00fe
:0406100000000500e1
:020000040000fa
:100614000000fa00c2000700c00c80004500de00a4
:10062400614060000004a200614060000080fb00a3
:10063400610060004500dd00c10c80000150a10094
:1006440001007000c00c880000122a007100200014
:10065400ca000700c00c80004500de006140600055
:100664000004a200614060000080fb0061006000a3
:100674004500dd00c10c80000150a10001007000a4
:10068400c00c8800c00c80004600de0061406000a1
:100694000004a200614060000080fb006100600073
:1006a4004600dd00c10c80000160a1000100700063
:1006b400c00c880000122a0071002000af0007005f
:1006c400c00c80004600de00614060000004a2000f
:1006d400614060000080fb00610060004600dd00b6
:1006e400c10c80000160a10001007000c00c8800f2
:1006f400c00c80004700de00614060000004a200de
:10070400614060000080fb00610060004700dd0084
:10071400c10c80000170a10001007000c00c8800b1
:1007240000122a007100200094000700c00c800011
:100734004700de00614060000004a20061406000e8
:100744000080fb00610060004700dd00c10c8000f8
:100754000170a10001007000c00c8800200c800012
:100764004900de00614060000004a20061406000b6
:100774000080fb00610060004900dd00210c800066
:100784000190a10001007000200c880000122a00d2
:100794007100200079000700200c80004900de0071
:1007a400614060000004a200614060000080fb0022
:1007b400610060004900dd00210c80000190a1006f
:1007c40001007000200c8800200c80004a00de002c
:1007d400614060000004a200614060000080fb00f2
:1007e400610060004a00dd00210c800001a0a1002e
:1007f40001007000200c880000122a007100200003
:100804005e000700200c80004a00de0061406000aa
:100814000004a200614060000080fb0061006000f1
:100824004a00dd00210c800001a0a100010070003d
:10083400200c880000122a00710020004f000700dd
:1008440075ff3700000f78009e0078000140880093
:10085400ffff37000000fa002080200080077800a6
:10086400a0812000000188000080fa00000006003a
:100874003600f8008020a9000000eb00f1ff07001b
:100884003600f800f3ff07008040a90010002000a4
:10089400ecff07003600f8008060a900200020006b
:1008a400e8ff07003600f8008080a900300020002f
:1008b400e4ff07000000fa008421ef008e21ef001e
:1008c4009821ef00f0182000000c8800f0fe2f00a3
:1008d400500c8800f0312000a00c88005620ef0056
:1008e4005820ef005a20ef006e20ef007020ef0038
:1008f4007220ef008621ef009021ef009a21ef0093
:10090400f0002000400c8800c0202f00900c8800cc
:1009140070002000e00c88000080fa00000006004f
:100924000000fa00e3ff07002a00070002000700a6
:100934000080fa00000006000000fa000001eb004d
:100944006004200071052000031020008049780015
:10095400814978008249780000102300100888003b
:100964000621ef006821ef006a21ef006c21ef00ff
:0c0974000821ef000080fa0000000600df
:020000040000fa
:10098000f03fb1000180b10006003500ee03090020
:1009900000000000403fb1000180b100fbff3d00be
:1009a0001000b000203fb0000200350000800900b8
:0809b000000000000000060039
:020000040000fa
:1009b800020800002000000080000000000800007d
:1009c8000200000082000000ffff0000000000009d
:020000040000fa
:0c09d8000000fa000080fa000000060099
:020000040000fa
:020000040002f8
:04aff000ffff00005f
:020000040000fa
:020000040002f8
:04aff400ffff00005b
:020000040000fa
:020000040002f8
:04aff800bf970000ff
:020000040000fa
:020000040002f8
:04affc003f3f0000d3
:00000001FF
