:08000000803102288731FD2F39
:100F160038302100990098010800873196278731DB
:100F260087318B27080022008C018D018E0111303C
:100F360021008C00F0308D00DF308E00CF30230092
:100F46008E00F0308D0017308C00F03024008D00BC
:100F56003F308C00FF308E002100951325008C0158
:100F66008D018E01080087319027873122008C166B
:100F76008C140C158E16031022008C1E0314031CF1
:100F8600C72F22008C16C92F22008C1203108C1C2E
:100F96000314031CD12F22008C14D32F22008C1093
:100FA60003100C1D0314031CDB2F22000C15DD2F70
:100FB60022000C1103108E1E0314031CE52F2200C1
:100FC6008E16E72F22008E1220000E1AF52F031020
:100FD60022008C1E0314031CF32F22008C16F52FFF
:100FE60022008C125230F0002A30890BF82FF00BB9
:0A0FF600F82FBE2F20008731B62F20
:020000040001F9
:06000E00FC3FFF3F9F3F95
:00000001FF
