:08000000803102288731FD2F39
:100F7E008731D72787318731C52708006230310086
:100F8E008D008F019101023093009201080087318C
:100F9E00BF272000161696121617961780310228B4
:100FAE0020009A019901960197019801073095004A
:100FBE000F309100FF309200FF309300FF3094000D
:100FCE00FF303E00CE00FF30C300FF30D9000730A7
:100FDE00E400FF30B800DA01E501C401B901CF0128
:100FEE00E601BA01C501D001DB01080020008731FE
:020FFE00CE2FF4
:020000040001F9
:0A000E00EC3FFF3B9F3FFF3FFF3F29
:00000001FF
