:02000000FE29D7
:10034A0013150800603090000800C03096000800BD
:10035A0089309F00061508150800A721AD21AA219A
:10036A00B72108009301FF30920091018C10080018
:10037A00C1004108C000C00DC00D1F084006E33986
:10038A0040069F001F149F149F18C9291E080800C1
:10039A004008C20005300310C20DFF3E031DD029DC
:1003AA000310420D94004108C3004008C200031024
:1003BA00C30CC20C0310C30CC20C420895000800FF
:1003CA00B221061086108714A5210230BD21C4006F
:1003DA00C5010310C40DC50D0310C40DC50D440895
:1003EA00C6004508C7004708C1004608C000CD211D
:0603FA00EA298301E52958
:02400E00E03D93
:00000001FF
