:0400000080311B2808
:100008007E14803120007F08F6002E0099198F1D7C
:1000180011288731FB278031162819190F1D16283A
:1000280084312D2476082000FF007E1009008031DD
:100038001D28F701F801F901FA01FB01FC014C3018
:100048008400003085001B308F31F1277E1020009E
:100058008731002F30302000B4003408BE00200063
:100068002F08B5002E08B400AE0A0319AF0A3408E9
:100078008400350885000008B6003608C20042082A
:10008800031908002530420603194F2842088F310A
:10009800EB27803133282000BF017D28BF16BF170A
:1000A8009D283E0886008701403FBC00413FBD00B7
:1000B8000230B4003408BE073C083D04031D68281C
:1000C8002130BC008430BD003C0884003D08850018
:1000D8001200031933283C0884003D0885000008F5
:1000E8008F31EB27803101302000BC070030BD3D47
:1000F80068282F08B5002E08B400AE0A0319AF0A05
:1001080034088400350885000008C200003A031945
:100118008E29583A031952283C3A03199D280D3A5A
:1001280003199D281A3A031955280B3A031953281D
:100138003328BF1BB6283E0886008701403FC00011
:10014800413FC1000230B4003408BE07C11F062970
:100158000330B4003408BF04C009C109C00A031938
:10016800C10A06293E0886008701403FC000413F7A
:10017800C1000230B4003408BE070629C201C20A11
:100188000530420603190F294208B400B501B435F9
:10019800B50DDF30340784008230353D8500003FDF
:1001A800B600013FB70037084102031DDD283608B5
:1001B8004002031C0F290130B4003408C207C428C8
:1001C800C201C20A0430420603190F294208B400CA
:1001D800B501B435B50DE930340784008230353DBA
:1001E8008500003FB600013FB70037084102031DF4
:1001F800FF2836084002031C0F290130B4003408D8
:10020800C207E6283F088039003A0319C228803A15
:100218000319E4280F293F080339031917292D303A
:100228008F31EB27803120004208B4003408BB002E
:100238007C290A30A8000030A9003B08B400B501A9
:10024800B435B50DDF30340784008230353D850084
:10025800003FA000013FA1004108A3004008A20000
:1002680086317626803120002108AB002008AA00BC
:100278008631AB26803120002808303E75293B089E
:10028800B400B501B435B50DE930340784008230C7
:10029800353D8500003FA000013FA1004108A300B3
:1002A8004008A200863176268031200020080F39C8
:1002B800B6003608B800BF1A65290030B900843086
:1002C8006829EF30B9008330BA003A08B500390818
:1002D800B40038083407840035080318350A850047
:1002E8000008B6003608C20042088F31EB2780317B
:1002F800FF302000B4003408BB073B0A0319332839
:100308003F088039003A03191D29803A0319432907
:10031800782978290800F1302000A5008230A6004D
:100328008731DA27813149302000C3004308A7000C
:10033800FD3086313A268131003A0319BA29200066
:100348004908031DAB29D930C5008330AE292830B0
:10035800C5008430C6009530AE008330AF00460833
:10036800B1004508B00080312E208131493020008D
:10037800C3004308A700FE3086313A268131003A8F
:100388000319D529AD302000AE008330AF004908ED
:10039800C300C4014308B0004408B10080312E20D6
:1003A800813149302000C3004308A700FF3086315F
:1003B8003A268131003A0319F02911302000AE00A5
:1003C8008430AF004908C300C4014308B0004408A2
:1003D800B10080312E208131D8302000A500833033
:1003E800A6008731DA27813149302000C30043084D
:1003F800A700043086313A268131003A0319132ABE
:10040800DA302000AE008330AF004908C300C401D1
:100418004308B0004408B10080312E2081314730B4
:100428002000C3004308A700053086313A268131F1
:10043800003A03195A2A48302000C3004308A7008D
:10044800063086313A26813120004808C30006303C
:10045800C336890B2C2A4308C4004408C800C71FA8
:100468003B2A4803FF3A033EC3004308C8001C3038
:10047800AE008330AF004708B000B101B01BB10334
:100488004808C300C4014308A0004408A10019306B
:10049800A2000030A30087314127813120002108C4
:1004A800B3002008B20080312E208131473020006F
:1004B800C3004308A700073086313A268131003A45
:1004C8000319A12A48302000C3004308A7000830B8
:1004D80086313A26813120004808C3000630C336E9
:1004E800890B732A4308C4004408C800C71F822A1E
:1004F8004803FF3A033EC3004308C8003D30AE003E
:100508008330AF004708B000B101B01BB103480801
:10051800C300C4014308A0004408A1001930A20088
:100528000030A30087314127813120002108B30022
:100538002008B20080312E20813149302000C300CC
:100548004308A700203086313A268131003A031942
:10055800BC2AC4302000AE008330AF004908C30075
:10056800C4014308B0004408B10080312E20813115
:1005780049302000C3004308A700213086313A26BD
:100588008131003A0319D72A7B302000AE0083302E
:10059800AF004908C300C4014308B0004408B100D3
:1005A80080312E208131D8302000A5008330A6006C
:1005B8008731DA270800013400340A3400346434FF
:1005C8000034E83403341034273401340034103450
:1005D800003400340134003410344D346934633449
:1005E80072346F3463346834693470342034453479
:1005F8004D3443343134303430343134203454348D
:1006080065346D34703465347234613474347534DF
:10061800723465342034533465346E3473346F3433
:1006280072342034443465346D346F340A34003401
:10063800543465346D3470346534723461347434D0
:1006480075347234653420346834693467346834F6
:1006580020346C3469346D34693474343A34093470
:10066800253464342E3425346434203443340A3435
:100678000034543465346D34703465347234613404
:10068800743475347234653420346C346F34773490
:1006980020346C3469346D34693474343A34093430
:1006A800253464342E3425346434203443340A34F5
:1006B8000034433475347234723465346E347434AF
:1006C8002034543465346D34703465347234613494
:1006D80074347534723465343A34093425346434E6
:1006E8002E3425346434203443340A3400345434EA
:1006F8006834653472346D3461346C342034683451
:1007080079347334743465347234653473346934C9
:1007180073343A34093425346434203443340A3485
:100728000034503472346F34643475346334743440
:100738002034493444343A340934093445344D3486
:1007480043343134303430343134253473340A345A
:1007580000344D3461346E34753466346134633436
:100768007434753472346534723420344934443402
:100778003A34093430347834253458340A3400345F
:1007880054346834653472346D3461346C342034D4
:100798006C3469346D34693474343A340934093446
:1007A80025346434203443340A34003443346F34F9
:1007B8006E34763465347234733469346F346E341D
:1007C800203472346134743465343A34093425344D
:1007D80078340A34003430343134323433343434F5
:1007E8003534363437343834393441344234433488
:1007F80044344534463400343034313432343334BC
:100808003434353436343734383439346134623436
:100818006334643465346634003452346534763471
:100828006934733469346F346E3420343A3409349B
:100838000934253464340A34003428346E34753469
:100848006C346C34293400342D34313400340C3495
:1008580000342E000F1123009A1F5B2D9A132000DD
:10086800D1017A08023E86008701010886008701C7
:100878008101810AFA010800CE1808004D08F2002B
:100888007208FA004D08860087010108F200720814
:10089800FC004D0886008701413FFB000330F20051
:1008A8007208CD074D08653A031D5E2C6230F200D0
:1008B8007208CD004E104D084C060319CE142300C3
:1008C8001B140230F20072082000D1000800230037
:1008D8009B140230F20072082000D10008002300A7
:1008E8001B1F7F2C0130F20072082000D007043053
:1008F80087318D27080020006608F3006508F2009C
:10090800F336F20C7208230096002000651C912C27
:100918000B30F2007208D10008000330F2007208B0
:10092800D100080023001B1FA22C0130F20072081E
:100938002000D007043087318D2708009B14200041
:100948006608F3006508F2007308F200F301063048
:100958007205F40000307305F500F0307404E5000A
:1009680000307504E6006514F701F70A0230F2005A
:100978007208D100080077030319D32C7B0886007E
:100988008701403FE500413FE6007B08860087017C
:10099800433FF9007B0886008701423FF80065085D
:1009A800230096002000651CDE2C0530F20072083A
:1009B800D10008000330F2007208D10008002300BB
:1009C8001B1FF12C0130F20072082000D007230011
:1009D8001B13053087318D2708000130F802780A8B
:1009E800031D0A2D0430F2007208FB070130FC02D7
:1009F800031D022D003087318D27080023009B142A
:100A08000230F20072082000D10008007908860040
:100A180087010108230096000130F2007208F907E7
:100A2800080023001B1F232D0130F200720820004C
:100A3800D007043087318D2723001B1308009B152E
:100A48000830F20072082000D10008000830F200D7
:100A58007208D10023009B15080023001608F20035
:100A6800790886008701720881000130F200720857
:100A7800F9070130F8020319482D9B120630F200DD
:100A880072082000D1004B2D9B168731BC2723000C
:100A98001B160800003087318D2708000130F2004E
:100AA80072082000D007063087318D270800200003
:100AB800510884000C3004020318522D8731043584
:100AC800753E8200080045302000C3004308A70097
:100AD800003086313A268531003A0319080046303D
:100AE8002000C3004308A700023086313A2685312A
:100AF80020004608C3000630C336890B802D430802
:100B0800C4004408C600C51F8F2D4603FF3A033EA4
:100B1800C3004308C6005D30AE008330AF0045080F
:100B2800B000B101B01BB1034608C300C4014308BB
:100B3800A0004408A1001930A2000030A3008731AA
:100B48004127853120002108B3002008B2008031F8
:100B58002E2008002000970108303E00E500200004
:100B6800960101309800F0303E00B900FF30C40013
:100B7800E730CF00FF30B800FF30C300E730CE00C9
:100B8800FF3020009200FE309300F03091000030DA
:100B98008B1B0130A0008B1355303D008F00AA300D
:100BA8008F000F1010303E00A0001730A3003D004A
:100BB8004908E0391338C9004808E0391438C80032
:100BC80016303E00A40055303D008F00AA308F003B
:100BD8000F142000201CF22D8B1708008B1308001F
:100BE8002000A3004E18282E0230A20021088600FB
:100BF8008701220881002008A2004C0A860087018C
:100C0800220881002308A2004C08860087012208D8
:100C180081002108A2004C08023E860087012208B4
:100C280081000330A2002208CC074C08653A031D56
:100C3800212E6230A2002208CC00CE104D084C06AE
:100C4800031D2D2E4E142D2E2108860087018101AB
:100C5800810A21088600870102300106031D080069
:100C68005108031D342E2E000F1508002000AA007D
:100C78000230A8002808AB002A30A8002808A000E5
:100C8800A101A10A3830A2000030A30052308731F8
:100C98002127863120002708A8002808A000A101E4
:100CA800A10A3830A2000030A30056308631D82679
:100CB800863152302000A8002808A0002B30A90057
:100CC8002908A10002308531F42586310230200040
:100CD8002B0603196A2E2B08031D742E01300800F9
:100CE800003008002000A501A601200821040319EE
:100CF800A62EA701A70AA11B8B2E0130A035A10D96
:100D0800890B822E0130A4002408A7077F2E01300A
:100D1800A535A60D890B8C2E21082302031D962EBE
:100D280020082202031C9D2E2008A2022108A33BB2
:100D380025140130A136A00C890B9E2E0130A70284
:100D4800031D8B2E2608A1002508A00008002000FE
:100D5800280829040319D32EAD01AD0AA91BBE2EFC
:100D68000130A835A90D890BB52E0130AC002C082F
:100D7800AD07B22E29082B02031DC42E28082A020B
:100D8800031CCA2E2808AA022908AB3B0130A93641
:100D9800A80C890BCB2E0130AD02031DBE2E2B08EB
:100DA800A9002A08A80008002000A6002308A5001A
:100DB8002208A400A435A50D26088600870124086A
:100DC800C03F2508C13F26088600870101308104FD
:100DD8004131003081042108A4002608023E860023
:100DE8008701240881002008A4002608033E860005
:100DF80087012408810008008731CE2787318B17A7
:100E08000B172B302000AE008430AF0080312E202D
:100E1800873181318F2187318531672587310230CC
:100E28002000CB004530CA00A930890B192FCA0B06
:100E3800192FCB0B192F0032052F2000A6002308ED
:100E4800A5002208A400A435A50D26088600870160
:100E58002408C03F2508C13F2108A4002608023EF7
:100E680086008701240881002008A4002608033E84
:100E7800860087012408810008002000A401A5013C
:100E8800201C4A2F2208A4072308A53D0130A235BB
:100E9800A30D890B4B2F0130A136A00C890B502FC5
:100EA80020082104031D442F2508A1002408A000C0
:100EB800080062302000A0002008CD006230A000A9
:100EC8002008CC00CE144E10D001803023009900A9
:100ED80028309A009C01043097002E000F11191534
:100EE80008008431402C84316B2C8431BF2C843130
:100EF800E32C85314E2D8531152D85312A2D8531EF
:100F08004E2D8531312D8531522D8431732C84310C
:100F1800962CF10023001B157A08023E86008701F3
:100F280001080319A22F7108F0007A08023E860012
:100F38008701010886008701700881002000D1011F
:100F480008002000220884002308850012000319E5
:100F580008002000220884002308850000088F313B
:100F6800EB27873101302000A2070030A33DA52FD1
:100F78000430F0007008FB070130FC02031DCA2F83
:100F88000430F00070082000D10008002000D101D2
:100F9800D10A08008531AE2587318F31F72787318F
:100FA80087315D2787318731E6270800200026082A
:100FB800A3002508A2008731A52787310A308F3181
:100FC800EB270800083022009F0080309D00243065
:100FD8009E0019309B009C0108002000A0002E00F4
:100FE8000F1EF32F2000200822009A000800080096
:101FD6002000A10021088731F12708006400800154
:101FE6000131890BF22F0034623031008D008F01F0
:0A1FF60091010230930092010800EF
:020000040001F9
:0A000E00EC3FFF3B9F3FFF3FFF3F29
:00000001FF
