:0400000080311B2808
:100008007E14803120007F08F6002E0099198F1D7C
:10001800112887313F278031162819190F1D1628F6
:1000280081318F2176082000FF007E100900803181
:100038001D28F701F801F901FA01FB01FC014A301A
:100048008400003085001B30873133277E10200064
:1000580086312F2E30302000B4003408BE00200036
:100068002F08B5002E08B400AE0A0319AF0A3408E9
:100078008400350885000008B6003608C20042082A
:10008800031908002530420603194F284208873112
:100098003927803133282000BF017D28BF16BF17BC
:1000A8009D283E0886008701403FBC00413FBD00B7
:1000B8000230B4003408BE073C083D04031D68281C
:1000C800D030BC008330BD003C0884003D0885006A
:1000D8001200031933283C0884003D0885000008F5
:1000E80087313927803101302000BC070030BD3D01
:1000F80068282F08B5002E08B400AE0A0319AF0A05
:1001080034088400350885000008C200003A031945
:100118008E29583A031952283C3A03199D280D3A5A
:1001280003199D281A3A031955280B3A031953281D
:100138003328BF1BB6283E0886008701403FC00011
:10014800413FC1000230B4003408BE07C11F062970
:100158000330B4003408BF04C009C109C00A031938
:10016800C10A06293E0886008701403FC000413F7A
:10017800C1000230B4003408BE070629C201C20A11
:100188000530420603190F294208B400B501B435F9
:10019800B50DC930340784008230353D8500003FF5
:1001A800B600013FB70037084102031DDD283608B5
:1001B8004002031C0F290130B4003408C207C428C8
:1001C800C201C20A0430420603190F294208B400CA
:1001D800B501B435B50DD330340784008230353DD0
:1001E8008500003FB600013FB70037084102031DF4
:1001F800FF2836084002031C0F290130B4003408D8
:10020800C207E6283F088039003A0319C228803A15
:100218000319E4280F293F080339031917292D303A
:1002280087313927803120004208B4003408BB00E8
:100238007C290A30A8000030A9003B08B400B501A9
:10024800B435B50DC930340784008230353D85009A
:10025800003FA000013FA1004108A3004008A20000
:100268008531A525803120002108AB002008AA008F
:100278008531DA25803120002808303E75293B0871
:10028800B400B501B435B50DD330340784008230DD
:10029800353D8500003FA000013FA1004108A300B3
:1002A8004008A2008531A5258031200020080F399B
:1002B800B6003608B800BF1A6529B030B9008330D7
:1002C80068299F30B9008330BA003A08B500390868
:1002D800B40038083407840035080318350A850047
:1002E8000008B6003608C200420887313927803135
:1002F800FF302000B4003408BB073B0A0319332839
:100308003F088039003A03191D29803A0319432907
:100318007829782908002E000F1123009A1FBD2A7A
:100328009A132000CF017A08023E8600870101084F
:10033800860087018101810AFA010800CC180800AB
:100348004B08F2007208FA004B0886008701010882
:10035800F2007208FC004B0886008701413FFB0051
:100368000330F2007208CB074B08633A031DC0291B
:100378006030F2007208CB004C104B084A06031993
:10038800CC1423001B140230F20072082000CF00A6
:10039800080023009B140230F20072082000CF00EE
:1003A800080023001B1FE1290130F2007208200019
:1003B800CE0704308631BC26080020006408F3000C
:1003C8006308F200F336F20C72082300960020004E
:1003D800631CF3290B30F2007208CF0008000330C9
:1003E800F2007208CF00080023001B1F042A013006
:1003F800F20072082000CE0704308631BC260800BF
:100408009B1420006408F3006308F2007308F200EC
:10041800F30106307205F40000307305F500F03082
:100428007404E30000307504E4006314F701F70A6C
:100438000230F2007208CF00080077030319352A4A
:100448007B0886008701403FE300413FE4007B08CA
:1004580086008701433FF9007B0886008701423FF9
:10046800F8006308230096002000631C402A05302A
:10047800F2007208CF0008000330F2007208CF00C3
:10048800080023001B1F532A0130F20072082000C5
:10049800CE0723001B1305308631BC260800013027
:1004A800F802780A031D6C2A0430F2007208FB0770
:1004B8000130FC02031D642A00308631BC26080086
:1004C80023009B140230F20072082000CF000800BD
:1004D8007908860087010108230096000130F200A0
:1004E8007208F907080023001B1F852A0130F20053
:1004F80072082000CE0704308631BC2623001B1367
:1005080008009B150830F20072082000CF00080090
:100518000830F2007208CF0023009B150800230062
:100528001608F200790886008701720881000130F8
:10053800F2007208F9070130F8020319AA2A9B127F
:100548000630F20072082000CF00AD2A9B168631D3
:10055800EB2623001B16080000308631BC26080055
:100568000130F20072082000CE0706308631BC2622
:10057800080020004F0884000C3004020318B42A35
:1005880086310435A43E82000800013400340A3460
:10059800003464340034E83403341034273401342C
:1005A80000341034003400340134003410344D3435
:1005B8006934633472346F34633468346934703442
:1005C800203445344D3443343134303430343134CC
:1005D8002034543465346D34703465347234613485
:1005E80074347534723465342034533465346E345D
:1005F80073346F3472342034443465346D346F345A
:100608000A3400340A345434683465342034743479
:1006180065346D34703465347234613474347534CF
:10062800723465342034693473343A3420342534D0
:1006380064342E3425346434203443340A3400348A
:10064800543468346534203443346F346E3476342B
:1006580065347234733469346F346E3420347234D0
:100668006134743465342034693473343A34203452
:10067800253478340A3400345434683465342034EA
:10068800683469346734683420346C3469346D34C0
:10069800693474342034693473343A34203425345A
:1006A8006434203443340A340034543468346534B0
:1006B80020346C346F34773420346C3469346D34BE
:1006C800693474342034693473343A34203425342A
:1006D8006434203443340A3400344D3461346E3485
:1006E8007534663461346334743475347234653403
:1006F80072342034493444343A3420343034783431
:10070800253458340A340034503472346F34643425
:100718007534633474342034493444343A342034DE
:1007280045344D3443343134303430343134253465
:1007380073340A340034303431343234333434349A
:100748003534363437343834393441344234433428
:10075800443445344634003430343134323433345C
:1007680034343534363437343834393461346234D7
:100778006334643465346634003452346534763412
:100788006934733469346F346E3420343A34203425
:10079800253464340A34003428346E3475346C34A7
:1007A8006C34293400342D34313400340C340034A2
:1007B800DB302000A5008230A6008731092783316D
:1007C80047302000C3004308A700FD308531692564
:1007D8008331003A0319072C20004708031DF82B22
:1007E8005830C5008330FB2BD730C5008330C60096
:1007F8008830AE008330AF004608B1004508B0002D
:1008080080312E20833147302000C3004308A700E1
:10081800FE30853169258331003A0319222C713065
:100828002000AE008330AF004708C300C40143086E
:10083800B0004408B10080312E20833147302000B9
:10084800C3004308A700FF30853169258331003A8A
:1008580003193D2CC1302000AE008330AF0047089B
:10086800C300C4014308B0004408B10080312E2001
:10087800833147302000C3004308A7000430853186
:1008880069258331003A0319582C24302000AE0022
:100898008330AF004708C300C4014308B0004408D0
:1008A800B10080312E20833147302000C300430837
:1008B800A7000530853169258331003A0319732C67
:1008C80040302000AE008330AF004708C300C401A9
:1008D8004308B0004408B10080312E2083314730EE
:1008E8002000C3004308A7000730853169258331FC
:1008F800003A03198E2C59302000AE008330AF0027
:100908004708C300C4014308B0004408B10080315F
:100918002E20833157302000A5008330A600873170
:100928000927080045302000C3004308A70000300D
:10093800853169258431003A0319080046302000C2
:10094800C3004308A700023085316925843120009F
:100958004608C3000630C336890BAF2C4308C400D1
:100968004408C600C51FBE2C4603FF3A033EC30019
:100978004308C6000630AE008330AF004508B0001B
:10098800B101B01BB1034608C300C4014308A0006D
:100998004408A1001930A2000030A3008631702657
:1009A800843120002108B3002008B20080312E20B5
:1009B80008002000970108303E00E500200096015D
:1009C80001309800F0303E00B900FF30C400E73035
:1009D800CF00FF30B800FF30C300E730CE00FF3053
:1009E80020009200FE309300F030910000308B1B05
:1009F8000130A0008B1355303D008F00AA308F00C6
:100A08000F1010303E00A0001730A3003D00490829
:100A1800E0391338C9004808E0391438C8001630DE
:100A28003E00A40055303D008F00AA308F000F14FF
:100A38002000201C212D8B1708008B130800200094
:100A4800A3004C18572D0230A20021088600870108
:100A5800220881002008A2004A0A8600870122088D
:100A680081002308A2004A08860087012208810025
:100A78002108A2004A08023E860087012208810058
:100A88000330A2002208CA074A08633A031D502D02
:100A98006030A2002208CA00CC104B084A06031D89
:100AA8005C2D4C145C2D2108860087018101810A88
:100AB80021088600870102300106031D08004F083F
:100AC800031D632D2E000F1508002000AA00023018
:100AD800A8002808AB002A30A8002808A000A10117
:100AE800A10A3830A2000030A300503086315026C9
:100AF800853120002708A8002808A000A101A10A24
:100B08003830A2000030A3005430863107268531E2
:100B180050302000A8002808A0002B30A900290880
:100B2800A1000230853123258531023020002B06B3
:100B38000319992D2B08031DA32D0130080000303F
:100B480008002000A501A601200821040319D52DBD
:100B5800A701A70AA11BBA2D0130A035A10D890B49
:100B6800B12D0130A4002408A707AE2D0130A5350A
:100B7800A60D890BBB2D21082302031DC52D2008B6
:100B88002202031CCC2D2008A2022108A33B251415
:100B98000130A136A00C890BCD2D0130A702031D11
:100BA800BA2D2608A1002508A00008002000280862
:100BB80029040319022EAD01AD0AA91BED2D013040
:100BC800A835A90D890BE42D0130AC002C08AD0720
:100BD800E12D29082B02031DF32D28082A02031CE6
:100BE800F92D2808AA022908AB3B0130A936A80C20
:100BF800890BFA2D0130AD02031DED2D2B08A9003C
:100C08002A08A80008002000A6002308A50022083A
:100C1800A400A435A50D2608860087012408C03F36
:100C28002508C13F2608860087010130810441312B
:100C3800003081042108A4002608023E86008701AE
:100C4800240881002008A4002608033E86008701A6
:100C58002408810008008631FD2686318B170B1782
:100C6800DA302000AE008330AF0080312E2086318C
:100C78008331DC238631843196248631023020008A
:100C8800C9004530C800A930890B482EC80B482E2A
:100C9800C90B482E0032342E2000A6002308A500D8
:100CA8002208A400A435A50D26088600870124087B
:100CB800C03F2508C13F2108A4002608023E86003F
:100CC8008701240881002008A4002608033E860026
:100CD80087012408810008002000A401A501201C28
:100CE800792E2208A4072308A53D0130A235A30DBB
:100CF800890B7A2E0130A136A00C890B7F2E200893
:100D08002104031D732E2508A1002408A000080053
:100D180060302000A0002008CB006030A000200830
:100D2800CA00CC144C10CE01803023009900283022
:100D38009A009C01043097002E000F111915080025
:100D48008131A2298131CD298231212A8231452A56
:100D58008231B02A8231772A82318C2A8231B02AB4
:100D68008231932A8231B42A8131D5298131F829F7
:100D7800F10023001B157A08023E8600870101084E
:100D88000319D12E7108F0007A08023E8600870107
:100D9800010886008701700881002000CF01080043
:100DA8002000220884002308850012000319080087
:100DB800200022088400230885000008873139278D
:100DC800863101302000A2070030A33DD42E043024
:100DD800F0007008FB070130FC02031DF92E0430F7
:100DE800F00070082000CF0008002000CF01CF0AD3
:100DF80008008431DD24863187312A2786318631FF
:100E08008C26863187311527080020002608A30084
:100E18002508A2008631D42687310A308731392740
:100E28000800083022009F0080309D0024309E007A
:100E380019309B009C0108002000A0002E000F1E06
:100E4800222F2000200822009A000800623031007A
:100E58008D008F0191010230930092010800640017
:100E680080010131890B342F00342000A1002108B2
:080E7800873120270800080063
:020000040001F9
:0A000E00EC3FFF3B9F3FFF3FFF3F29
:00000001FF
