:040000008031202803
:100008007E14803120007F08F6000B1F13282E0075
:1000180099198F1D13288731FE2780311B280B1F44
:100028001B282E0019190F1D1B288431322476082D
:100038002000FF007E10090080312228F701F80116
:10004800F901FA01FB01FC014B3084000030850006
:100058001B308731F8277E1020008631402E303043
:100068002000B4003408BE0020002F08B5002E0878
:10007800B400AE0A0319AF0A3408840035088500B5
:100088000008B6003608C2004208031908002530E7
:1000980042060319542842088F31C4278031382872
:1000A8002000BF018228BF16BF17A2283E0886007D
:1000B8008701403FBC00413FBD000230B400340816
:1000C800BE073C083D04031D6D282630BC00843063
:1000D800BD003C0884003D0885001200031938283B
:1000E8003C0884003D08850000088F31C427803112
:1000F80001302000BC070030BD3D6D282F08B50039
:100108002E08B400AE0A0319AF0A34088400350873
:1001180085000008C200003A03199329583A0319C8
:1001280057283C3A0319A2280D3A0319A2281A3A6B
:1001380003195A280B3A031958283828BF1BBB281B
:100148003E0886008701403FC000413FC1000230A1
:10015800B4003408BE07C11F0B290330B4003408AB
:10016800BF04C009C109C00A0319C10A0B293E0806
:1001780086008701403FC000413FC1000230B40003
:100188003408BE070B29C201C20A0530420603190A
:1001980014294208B400B501B435B50DE43034076C
:1001A80084008230353D8500003FB600013FB7002E
:1001B80037084102031DE22836084002031C1429AF
:1001C8000130B4003408C207C928C201C20A043089
:1001D8004206031914294208B400B501B435B50D17
:1001E800EE30340784008230353D8500003FB6008C
:1001F800013FB70037084102031D042936084002B1
:10020800031C14290130B4003408C207EB283F0846
:100218008039003A0319C728803A0319E9281429B4
:100228003F08033903191C292D308F31C427803129
:1002380020004208B4003408BB0081290A30A80015
:100248000030A9003B08B400B501B435B50DE43061
:10025800340784008230353D8500003FA000013F0F
:10026800A1004108A3004008A2008631C1268031C0
:1002780020002108AB002008AA008631F62680312C
:1002880020002808303E7A293B08B400B501B4356F
:10029800B50DEE30340784008230353D8500003FCF
:1002A800A000013FA1004108A3004008A200863138
:1002B800C1268031200020080F39B6003608B80062
:1002C800BF1A6A290530B90084306D29F430B900A5
:1002D8008330BA003A08B5003908B4003808340742
:1002E800840035080318350A85000008B60036086A
:1002F800C20042088F31C4278031FF302000B4008B
:100308003408BB073B0A031938283F088039003AEC
:1003180003192229803A031948297D297D290800D3
:10032800F6302000A5008230A6008F31E827813101
:1003380049302000C3004308A700FD3086318526D8
:100348008131003A0319BF2920004908031DB0294B
:10035800DE30C5008330B3292D30C5008430C60097
:100368009A30AE008330AF004608B1004508B000AF
:1003780080313320813149302000C3004308A70071
:10038800FE30863185268131003A0319DA29B230E8
:100398002000AE008330AF004908C300C401430801
:1003A800B0004408B1008031332081314930200049
:1003B800C3004308A700FF30863185268131003A03
:1003C8000319F52916302000AE008430AF00490823
:1003D800C300C4014308B0004408B1008031332091
:1003E8008131DD302000A5008330A6008F31E82759
:1003F800813149302000C3004308A700043086310A
:1004080085268131003A0319182ADF302000AE0012
:100418008330AF004908C300C4014308B000440852
:10042800B10080313320813147302000C3004308B8
:10043800A7000530863185268131003A03195F2AE5
:1004480048302000C3004308A700063086318526BF
:10045800813120004808C3000630C336890B312A91
:100468004308C4004408C800C71F402A4803FF3A8D
:10047800033EC3004308C8002130AE008330AF00FC
:100488004708B000B101B01BB1034808C300C4015C
:100498004308A0004408A1001930A2000030A300BE
:1004A80087316B27813120002108B3002008B20072
:1004B80080313320813147302000C3004308A70032
:1004C8000730863185268131003A0319A62A48303B
:1004D8002000C3004308A7000830863185268131F3
:1004E80020004808C3000630C336890B782A430821
:1004F800C4004408C800C71F872A4803FF3A033EC0
:10050800C3004308C8004230AE008330AF0047083C
:10051800B000B101B01BB1034808C300C4014308CF
:10052800A0004408A1001930A2000030A3008731C0
:100538006B27813120002108B3002008B2008031E8
:100548003320813149302000C3004308A700203000
:10055800863185268131003A0319C12AC930200025
:10056800AE008330AF004908C300C4014308B0009F
:100578004408B10080313320813149302000C30064
:100588004308A7002130863185268131003A0319B6
:10059800DC2A80302000AE008330AF004908C30059
:1005A800C4014308B0004408B100803133208131D0
:1005B800DD302000A5008330A6008F31E827080031
:1005C800013400340A34003464340034E834033429
:1005D800103427340134003410340034003401342A
:1005E800003410344D346934633472346F346334F6
:1005F800683469347034203445344D3443343134EC
:100608003034303431342034543465346D347034FB
:10061800653472346134743475347234653420341A
:10062800533465346E3473346F3472342034443444
:1006380065346D346F340A340034543465346D34A1
:10064800703465347234613474347534723465349A
:100658002034683469346734683420346C3469343D
:100668006D34693474343A340934253464342E349E
:1006780025346434203443340A3400345434653423
:100688006D34703465347234613474347534723452
:10069800653420346C346F34773420346C346934E6
:1006A8006D34693474343A340934253464342E345E
:1006B80025346434203443340A34003443347534E4
:1006C8007234723465346E3474342034543465347E
:1006D8006D34703465347234613474347534723402
:1006E80065343A340934253464342E34253464347A
:1006F800203443340A340034543468346534723452
:100708006D3461346C34203468347934733474341F
:100718006534723465347334693473343A34093463
:1007280025346434203443340A3400345034723469
:100738006F34643475346334743420344934443445
:100748003A340934093445344D344334313430347F
:1007580030343134253473340A3400344D34613440
:100768006E34753466346134633474347534723479
:10077800653472342034493444343A3409343034DA
:100788007834253458340A340034543468346534A1
:1007980072346D3461346C3420346C3469346D34A3
:1007A800693474343A3409340934253464342034CF
:1007B80043340A34003443346F346E347634653449
:1007C8007234733469346F346E3420347234613463
:1007D800743465343A340934253478340A340034AE
:1007E80030343134323433343434353436343734C5
:1007F800383439344134423443344434453446344B
:1008080000343034313432343334343435343634DB
:100818003734383439346134623463346434653499
:100828006634003452346534763469347334693448
:100838006F346E3420343A3409340934253464343E
:100848000A34003428346E3475346C346C342934EA
:1008580000342D34313400340C3400342E000F11A0
:1008680023009A1F602D9A132000D0017A08023EB7
:10087800860087010108860087018101810AFA0143
:100888000800CD1808004C08F2007208FA004C085D
:10089800860087010108F2007208FC004C088600F7
:1008A8008701413FFB000330F2007208CC074C0877
:1008B800643A031D632C6130F2007208CC004D10BD
:1008C8004C084B060319CD1423001B140230F20008
:1008D80072082000D000080023009B140230F200A8
:1008E80072082000D000080023001B1F842C013050
:1008F800F20072082000CF0704308731B7270800BC
:1009080020006508F3006408F200F336F20C720860
:10091800230096002000641C962C0B30F20072080D
:10092800D00008000330F2007208D000080023004D
:100938001B1FA72C0130F20072082000CF070430DB
:100948008731B72708009B1420006508F300640866
:10095800F2007308F200F30106307205F40000306B
:100968007305F500F0307404E40000307504E50008
:100978006414F701F70A0230F2007208D000080088
:1009880077030319D82C7B0886008701403FE400D1
:10099800413FE5007B0886008701433FF9007B085B
:1009A80086008701423FF800640823009600200073
:1009B800641CE32C0530F2007208D00008000330F4
:1009C800F2007208D000080023001B1FF62C01302B
:1009D800F20072082000CF0723001B13053087316F
:1009E800B72708000130F802780A031D0F2D0430DC
:1009F800F2007208FB070130FC02031D072D0030CE
:100A08008731B727080023009B140230F2007208D0
:100A18002000D0000800790886008701010823001B
:100A280096000130F2007208F907080023001B1F26
:100A3800282D0130F20072082000CF0704308731DA
:100A4800B72723001B1308009B150830F200720813
:100A58002000D00008000830F2007208D0002300FF
:100A68009B15080023001608F20079088600870104
:100A7800720881000130F2007208F9070130F802AB
:100A880003194D2D9B120630F20072082000D00089
:100A9800502D9B168731E62723001B1608000030CF
:100AA8008731B72708000130F20072082000CF070D
:100AB80006308731B72708002000500884000C3022
:100AC80004020318572D873104359F3E8200080021
:100AD80020009601970101309800F0309100FF3016
:100AE8009200FE309300E7303E00CE00FF30C30096
:100AF8003030B8000830E500FF30C400F030B900ED
:100B0800E730CF00BA01C501D00100308B1B01309E
:100B18002000A0008B1355303D008F00AA308F00B5
:100B28000F1010303E00A0001730A3003D00490808
:100B3800E0391338C9004808E0391438C8001630BD
:100B48003E00A40055303D008F00AA308F000F14DE
:100B58002000201CB12D8B1708008B13080045308E
:100B68002000C3004308A700003086318526853160
:100B7800003A0319080046302000C3004308A700C4
:100B8800023086318526853120004608C3000630AC
:100B9800C336890BCC2D4308C4004408C600C51FC2
:100BA800DB2D4603FF3A033EC3004308C60062300C
:100BB800AE008330AF004508B000B101B01BB103EF
:100BC8004608C300C4014308A0004408A100193026
:100BD800A2000030A30087316B278531200021084F
:100BE800B3002008B2008031332008002000A300A1
:100BF8004D182E2E0230A2002108860087012208F7
:100C080081002008A2004B0A860087012208810083
:100C18002308A2004B0886008701220881002108CA
:100C2800A2004B08023E860087012208810003309B
:100C3800A2002208CB074B08643A031D272E613017
:100C4800A2002208CB00CD104C084B06031D332E02
:100C58004D14332E2108860087018101810A21085D
:100C68008600870102300106031D08005008031D95
:100C78003A2E2E000F1508008F31F42786318B1776
:100C88000B1720001610961016119611031020004D
:100C9800161C0314031C532E20001614552E200076
:100CA80016103030AE008430AF00803133208631EA
:100CB8008131942186318531B325863120008C1FFE
:100CC800682E200096146A2E200096100C1F6F2E96
:100CD80020001615712E200016110310161C03147F
:100CE800031C792E200016147B2E200016102130AC
:100CF8002000CA007630890B7F2ECA0B7F2E000099
:100D08004A2E2000AA000230A8002808AB002A308A
:100D1800A8002808A000A101A10A3830A2000030CC
:100D2800A300513087314B27863120002708A800BF
:100D38002808A000A101A10A3830A2000030A300B1
:100D4800553087312327863151302000A8002808E4
:100D5800A0002B30A9002908A10002308531FA250E
:100D68008631023020002B060319B52E2B08031DEF
:100D7800BF2E01300800003008002000A501A601A0
:100D8800200821040319F12EA701A70AA11BD62EBA
:100D98000130A035A10D890BCD2E0130A400240807
:100DA800A707CA2E0130A535A60D890BD72E210815
:100DB8002302031DE12E20082202031CE82E20082E
:100DC800A2022108A33B25140130A136A00C890BEF
:100DD800E92E0130A702031DD62E2608A1002508FA
:100DE800A000080020002808290403191E2FAD01BF
:100DF800AD0AA91B092F0130A835A90D890B002FB1
:100E08000130AC002C08AD07FD2E29082B02031D6C
:100E18000F2F28082A02031C152F2808AA022908C0
:100E2800AB3B0130A936A80C890B162F0130AD0257
:100E3800031D092F2B08A9002A08A8000800200074
:100E4800A6002308A5002208A400A435A50D26089D
:100E5800860087012408C03F2508C13F2608860070
:100E68008701013081044131003081042108A40048
:100E78002608023E86008701240881002008A40075
:100E88002608033E86008701240881000800200008
:100E9800A6002308A5002208A400A435A50D26084D
:100EA800860087012408C03F2508C13F2108A40007
:100EB8002608023E86008701240881002008A40035
:100EC8002608033E860087012408810008002000C8
:100ED800A401A501201C742F2208A4072308A53DFE
:100EE8000130A235A30D890B752F0130A136A00C56
:100EF800890B7A2F20082104031D6E2F2508A100D5
:100F08002408A000080061302000A0002008CC00C0
:100F18006130A0002008CB00CD144D10CF018030E7
:100F28002300990028309A009C01043097002E0075
:100F38000F11191508008431452C8431702C843127
:100F4800C42C8431E82C8531532D85311A2D8531F7
:100F58002F2D8531532D8531362D8531572D8431EF
:100F6800782C84319B2CF10023001B157A08023E53
:100F78008600870101080319CC2F7108F0007A0850
:100F8800023E8600870101088600870170088100FB
:100F98002000D001080020002208840023088500D2
:100FA8001200031908002000220884002308850085
:100FB80000088F31C427873101302000A207003094
:100FC800A33DCF2F0430F0007008FB070130FC026E
:100FD800031DF42F0430F00070082000D000080032
:100FE8002000D001D00A0800640080010131890B7B
:060FF800F92F003408008F
:101F88002000A10021088F31D327080062303100DA
:101F98008D008F019101023093009201080020000A
:101FA800A0002E000F1ED52F2000200822009A0026
:101FB8000800083022009F0080309D0024309E00D9
:101FC80019309B009C01080020002608A300250862
:101FD800A2008731CF278F310A308F31C4270800FC
:101FE80085316C258F318F31CA278F31873187270B
:081FF8008F318F31DD27080055
:020000040001F9
:0A000E00EC3FFF3B9F3FFF3FFF3F29
:00000001FF
