:0400000080311B2808
:100008007E14803120007F08F6002E0099198F1D7C
:100018001128873120278031162819190F1D162815
:1000280081318F2176082000FF007E100900803181
:100038001D28F701F801F901FA01FB01FC014A301A
:100048008400003085001B30873114277E10200083
:100058008231C92A30302000B4003408BE002000A4
:100068002F08B5002E08B400AE0A0319AF0A3408E9
:100078008400350885000008B6003608C20042082A
:10008800031908002530420603194F284208873112
:100098001A27803133282000BF017D28BF16BF17DB
:1000A8009D283E0886008701403FBC00413FBD00B7
:1000B8000230B4003408BE073C083D04031D68281C
:1000C800D330BC008430BD003C0884003D08850066
:1000D8001200031933283C0884003D0885000008F5
:1000E80087311A27803101302000BC070030BD3D20
:1000F80068282F08B5002E08B400AE0A0319AF0A05
:1001080034088400350885000008C200003A031945
:100118008E29583A031952283C3A03199D280D3A5A
:1001280003199D281A3A031955280B3A031953281D
:100138003328BF1BB6283E0886008701403FC00011
:10014800413FC1000230B4003408BE07C11F062970
:100158000330B4003408BF04C009C109C00A031938
:10016800C10A06293E0886008701403FC000413F7A
:10017800C1000230B4003408BE070629C201C20A11
:100188000530420603190F294208B400B501B435F9
:10019800B50DDD30340784008330353D8500003FE0
:1001A800B600013FB70037084102031DDD283608B5
:1001B8004002031C0F290130B4003408C207C428C8
:1001C800C201C20A0430420603190F294208B400CA
:1001D800B501B435B50DE730340784008330353DBB
:1001E8008500003FB600013FB70037084102031DF4
:1001F800FF2836084002031C0F290130B4003408D8
:10020800C207E6283F088039003A0319C228803A15
:100218000319E4280F293F080339031917292D303A
:1002280087311A27803120004208B4003408BB0007
:100238007C290A30A8000030A9003B08B400B501A9
:10024800B435B50DDD30340784008330353D850085
:10025800003FA000013FA1004108A3004008A20000
:100268008531A725803120002108AB002008AA008D
:100278008531DC25803120002808303E75293B086F
:10028800B400B501B435B50DE730340784008330C8
:10029800353D8500003FA000013FA1004108A300B3
:1002A8004008A2008531A7258031200020080F3999
:1002B800B6003608B800BF1A6529B330B9008430D3
:1002C8006829A230B9008430BA003A08B500390864
:1002D800B40038083407840035080318350A850047
:1002E8000008B6003608C200420887311A27803154
:1002F800FF302000B4003408BB073B0A0319332839
:100308003F088039003A03191D29803A0319432907
:100318007829782908002E000F1123009A1FBD2A7A
:100328009A132000CF017A08023E8600870101084F
:10033800860087018101810AFA010800CC180800AB
:100348004B08F2007208FA004B0886008701010882
:10035800F2007208FC004B0886008701413FFB0051
:100368000330F2007208CB074B08633A031DC0291B
:100378006030F2007208CB004C104B084A06031993
:10038800CC1423001B140230F20072082000CF00A6
:10039800080023009B140230F20072082000CF00EE
:1003A800080023001B1FE1290130F2007208200019
:1003B800CE07043086319D26080020006408F3002B
:1003C8006308F200F336F20C72082300960020004E
:1003D800631CF3290B30F2007208CF0008000330C9
:1003E800F2007208CF00080023001B1F042A013006
:1003F800F20072082000CE07043086319D260800DE
:100408009B1420006408F3006308F2007308F200EC
:10041800F30106307205F40000307305F500F03082
:100428007404E30000307504E4006314F701F70A6C
:100438000230F2007208CF00080077030319352A4A
:100448007B0886008701403FE300413FE4007B08CA
:1004580086008701433FF9007B0886008701423FF9
:10046800F8006308230096002000631C402A05302A
:10047800F2007208CF0008000330F2007208CF00C3
:10048800080023001B1F532A0130F20072082000C5
:10049800CE0723001B13053086319D260800013046
:1004A800F802780A031D6C2A0430F2007208FB0770
:1004B8000130FC02031D642A003086319D260800A5
:1004C80023009B140230F20072082000CF000800BD
:1004D8007908860087010108230096000130F200A0
:1004E8007208F907080023001B1F852A0130F20053
:1004F80072082000CE07043086319D2623001B1386
:1005080008009B150830F20072082000CF00080090
:100518000830F2007208CF0023009B150800230062
:100528001608F200790886008701720881000130F8
:10053800F2007208F9070130F8020319AA2A9B127F
:100548000630F20072082000CF00AD2A9B168631D3
:10055800CC2623001B160800003086319D26080093
:100568000130F20072082000CE07063086319D2641
:10057800080020004F0884000C3004020318B42A35
:1005880086310435853E820008008631EA268231AC
:100598008B170B17DD302000AE008430AF008031A0
:1005A8002E20823143302000A5008430A6008631F9
:1005B800DE26823149302000C3004308A700FD3001
:1005C80085316B258231003A0319012B2000490837
:1005D800031DF22A4230C5008430F52ADA30C500FE
:1005E8008430C6008B30AE008430AF004608B100BE
:1005F8004508B00080312E20823149302000C300E8
:100608004308A700FE3085316B258231003A031973
:100618001C2B74302000AE008430AF004908C300A2
:10062800C4014308B0004408B10080312E20823153
:1006380049302000C3004308A700FF3085316B25EF
:100648008231003A0319372BC4302000AE008430C1
:10065800AF004908C300C4014308B0004408B10012
:1006680080312E20823147302000C3004308A70084
:10067800003085316B258231003A03197E2B4830D2
:100688002000C3004308A700023085316B25823162
:1006980020004808C3000630C336890B502B430896
:1006A800C4004408C800C71F5F2B4803FF3A033E35
:1006B800C3004308C800EF30AE008330AF004708DE
:1006C800B000B101B01BB1034808C300C40143081E
:1006D800A0004408A1001930A2000030A300863110
:1006E8005126823120002108B3002008B200803151
:1006F8002E20823149302000C3004308A70004306F
:1007080085316B258231003A0319992B0D30200071
:10071800AE008430AF004908C300C4014308B000EC
:100728004408B10080312E20823149302000C300B6
:100738004308A700053085316B258231003A03193B
:10074800B42B2A302000AE008430AF004908C30023
:10075800C4014308B0004408B10080312E20823122
:1007680049302000C3004308A700073085316B25B6
:100778008231003A0319CF2B5C302000AE00843060
:10078800AF004908C300C4014308B0004408B100E1
:1007980080312E20823102302000C4004530C30051
:1007A800A930890BD52BC30BD52BC40BD52B003205
:1007B800CE2A013400340A34003464340034E83476
:1007C8000334103427340134003410340034003436
:1007D8000134003410340A34543468346534203415
:1007E800743465346D3470346534723461347434FF
:1007F8007534723465342034693473343A342034AF
:10080800253464342E3425346434203443340A3493
:1008180000340A34543468346534203443346F3433
:100828006E34763465347234733469346F346E34AC
:100838002034723461347434653420346934733448
:100848003A342034253478340A3400345434683443
:1008580065342034683469346734683420346C343F
:1008680069346D34693474342034693473343A34F7
:10087800203425346434203443340A340034543466
:1008880065346D347034653472346134743475345D
:10089800723465342034533465346E3473346F34B1
:1008A80072342034443465346D346F340A3400347F
:1008B80054346834653420346C346F3477342034DD
:1008C8006C3469346D346934743420346934733465
:1008D8003A34203425346434203443340A34003420
:1008E8004D3461346E347534663461346334743431
:1008F80075347234653472342034493444343A34AB
:10090800203430347834253458340A3400345034A0
:1009180072346F3464347534633474342034493435
:1009280044343A34203445344D344334313430344B
:1009380030343134253473340A34003430343134AB
:100948003234333434343534363437343834393453
:10095800413442344334443445344634003430342A
:10096800313432343334343435343634373438343B
:100978003934613462346334643465346634003441
:100988005234653476346934733469346F346E3470
:1009980020343A342034253464340A34003428347A
:1009A8006E3475346C346C34293400342D3431345D
:1009B80000340C3400342000970108303E00E50074
:1009C8002000960101309800F0303E00B900FF3059
:1009D800C400E730CF00FF30B800FF30C300E73075
:1009E800CE00FF3020009200FE309300F0309100DE
:1009F80000308B1B0130A0008B1355303D008F0059
:100A0800AA308F000F1010303E00A0001730A3004E
:100A18003D004908E0391338C9004808E03914385E
:100A2800C80016303E00A40055303D008F00AA30A3
:100A38008F000F142000201C232D8B1708008B1308
:100A480008002000A3004C18592D0230A2002108EC
:100A580086008701220881002008A2004A0A860031
:100A68008701220881002308A2004A08860087011E
:100A7800220881002108A2004A08023E8600870158
:100A8800220881000330A2002208CA074A08633AF4
:100A9800031D522D6030A2002208CA00CC104B085A
:100AA8004A06031D5E2D4C145E2D21088600870121
:100AB8008101810A21088600870102300106031D91
:100AC80008004F08031D652D2E000F150800200093
:100AD800AA000230A8002808AB002A30A80028087D
:100AE800A000A101A10A3830A2000030A3005030B4
:100AF80086313126853120002708A8002808A00063
:100B0800A101A10A3830A2000030A3005430863178
:100B18000926853150302000A8002808A0002B3075
:100B2800A9002908A1000230853125258531023028
:100B380020002B0603199B2D2B08031DA52D013022
:100B48000800003008002000A501A60120082104A3
:100B58000319D72DA701A70AA11BBC2D0130A03569
:100B6800A10D890BB32D0130A4002408A707B02DCF
:100B78000130A535A60D890BBD2D21082302031DC3
:100B8800C72D20082202031CCE2D2008A20221080E
:100B9800A33B25140130A136A00C890BCF2D0130C1
:100BA800A702031DBC2D2608A1002508A0000800E7
:100BB8002000280829040319042EAD01AD0AA91B39
:100BC800EF2D0130A835A90D890BE62D0130AC00B9
:100BD8002C08AD07E32D29082B02031DF52D280845
:100BE8002A02031CFB2D2808AA022908AB3B013066
:100BF800A936A80C890BFC2D0130AD02031DEF2D81
:100C08002B08A9002A08A80008002000A60023082D
:100C1800A5002208A400A435A50D26088600870192
:100C28002408C03F2508C13F2608860087010130F7
:100C380081044131003081042108A4002608023EC5
:100C480086008701240881002008A4002608033EA6
:100C5800860087012408810008002000A6002308D8
:100C6800A5002208A400A435A50D26088600870142
:100C78002408C03F2508C13F2108A4002608023ED9
:100C880086008701240881002008A4002608033E66
:100C9800860087012408810008002000A401A5011E
:100CA800201C5A2E2208A4072308A53D0130A2358E
:100CB800A30D890B5B2E0130A136A00C890B602E89
:100CC80020082104031D542E2508A1002408A00093
:100CD800080060302000A0002008CB006030A00091
:100CE8002008CA00CC144C10CE0180302300990093
:100CF80028309A009C01043097002E000F11191516
:100D080008008131A2298131CD298231212A8231FD
:100D1800452A8231B02A8231772A82318C2A82315F
:100D2800B02A8231932A8231B42A8131D52981317E
:100D3800F829F10023001B157A08023E8600870176
:100D480001080319B22E7108F0007A08023E8600E5
:100D58008701010886008701700881002000CF0103
:100D680008002000220884002308850012000319C7
:100D78000800200022088400230885000008873125
:100D88001A27863101302000A2070030A33DB52E76
:100D98000430F0007008FB070130FC02031DDA2E56
:100DA8000430F00070082000CF0008002000CF01B8
:100DB800CF0A080020002608A3002508A2008631D3
:100DC800B52686310A3087311A2708008431DF2496
:100DD800863187310B27863186316D2686318631FB
:100DE800F6260800083022009F0080309D0024303D
:100DF8009E0019309B009C0108002000A0002E00D6
:100E08000F1E032F2000200822009A0008006230DD
:100E180031008D008F01910102309300920108008A
:100E2800640080010131890B152F00342000A100D6
:0A0E38002108873101270800080097
:020000040001F9
:0A000E00EC3FFF3B9F3FFF3FFF3F29
:00000001FF
