:08000000803102288731C12F75
:10000C00F000700820009D00080020003908F00066
:10001C003A08F1003B08F2008E31C82680312000EE
:10002C003C088F316C27803120005108F0005208B9
:10003C00F1005308F2008E31C826803104302000C4
:10004C00BD003D30890B2828BD0B28280032080044
:10005C00F501F6017008710403195D28F701F70A20
:10006C00F11B42280130F035F10D890B3928013094
:10007C00F4007408F70736280130F535F60D890BB6
:10008C00432871087302031D4D2870087202031C6B
:10009C0054287008F2027108F33B75140130F136E4
:1000AC00F00C890B55280130F702031D4228760805
:1000BC00F1007508F00008002000960197019801E6
:1000CC00F0309100FF309200BA309300FD303E00CA
:1000DC00CE00FF30C300DF30B800E501C401B90128
:1000EC00CF01BA01C501D00100308B1B0130F000EB
:1000FC008B1355303D008F00AA308F000F1010303D
:10010C003E00A0001030A6003D004B08E03911382D
:10011C00CB0019303E00A20055303D008F00AA30B4
:10012C008F000F14701C9C288B1708008B13080071
:10013C00DC3403340034083497340434003404348D
:10014C007034033400340834103403340034023473
:10015C007034033400340234DC3403340034083497
:10016C0097340434003404347034033400340C34C5
:10017C00DC3403340034083497340434003404344D
:10018C00E0340634003408342034063400340434AB
:10019C0097340434003408341734043400340234F3
:1001AC00DC340334003402347034033400340C3443
:1001BC001034033400340C340B34023400340C345B
:1001CC006E34023400340234BA3402340034023453
:1001DC0010340334003408340B3402340034083443
:1001EC006E34023400340234BA3402340034023433
:1001FC004B34023400340C340034003400340C34EE
:10020C00BA34023400340C34D234013400340C349B
:10021C004B340234003402346E3402340034023471
:10022C00BA34023400340834D23401340034083483
:10023C006E340234003402344B3402340034023451
:10024C000B34023400340C34F601F11F3429F0095C
:10025C00F109F00A0319F10AF601F60AF31F3F2916
:10026C00F209F309F20A0319F30A0130F4007408D5
:10027C00F606F701F8017008710403196E29F501EF
:10028C00F50AF11B53290130F035F10D890B4A2980
:10029C000130F4007408F50747290130F735F80DE3
:1002AC00890B542971087302031D5E2970087202B0
:1002BC00031C65297008F2027108F33B77140130B6
:1002CC00F136F00C890B66290130F502031D532918
:1002DC00760803197629F709F809F70A0319F80AB9
:1002EC007808F1007708F000080020003F08F100C2
:1002FC003E08F0007030F2001730F30081312A21F3
:10030C0081317108FA007008F9000A30FB000030E6
:10031C00FC008F31862781317A082000C4007908CF
:10032C00C3000430F0000030F1004408F30043082F
:10033C00F20081312A21813170082000C00071083F
:10034C00C100890D893B8909C2004008F8004108A9
:10035C00F9004208FA008F314027813178082000DB
:10036C00A3007908A4007A08A5001230A0008330FD
:10037C00A1003F30A2008231C2228131200020082E
:10038C00B0002108B1002208B20082313B22813139
:10039C0020003008FD007D08C5004508803106208E
:1003AC00080073080319DF29720871047004031D17
:1003BC00F0290030F0000030F1000030F2000800AD
:1003CC000130F5007508F3070130F236F10CF00C32
:1003DC00890BEB29FE3072050319092AE629013035
:1003EC00F5007508F3070130F007003003180130F1
:1003FC00F107003003180130F2070130F236F10C2E
:10040C00F00C890B042AFF3072050319162AF52902
:10041C000130F3020130F035F10DF20D890B112A88
:10042C00F11B1C2A0230730203180E2A7318242A9B
:10043C00FF30F0057F30F105FF30F2050310F30CAF
:10044C007308F500F601F7011030F535F60DF70DD0
:10045C00890B2B2A7508F0047608F1047708F2044E
:10046C00740803190800F217080020003008B400C3
:10047C003108B5003208B6000310350D360DB70043
:10048C003708BD003D08031D542A0030B30000306E
:10049C00B2000030B1000030B00008003008B400E9
:1004AC003108B5003208B6001730B636B50CB40CAE
:1004BC00890B5B2A3408B7003708B800B117FF3036
:1004CC00B005FF30B1050030B2053008B900310875
:1004DC00BA003208BB00BC018E30BD02BD1F922A8F
:1004EC003D08803A8F3E0318842A0030B300003058
:1004FC00B2000030B1000030B00008000130BC3652
:10050C00BB0CBA0CB90C890B852A0130B400340829
:10051C00BD070319AB2A842A18303D02031CA82AF4
:10052C000030B3000030B2000030B1000030B00039
:10053C0008000130B935BA0DBB0DBC0D890BA02AD2
:10054C000130BD023D08031D9F2A38080319B92A42
:10055C00B909BA09BB09BC09B90A0319BA0A0319C2
:10056C00BB0A0319BC0A3C08B3003B08B2003A08AA
:10057C00B1003908B000080020002308A6002408A8
:10058C00A7002508A8000310270D280DA90029088D
:10059C00AE002E08031DD92A0030A0000030A100A7
:1005AC000030A20008002008A6002108A70022089D
:1005BC00A8000310270D280DA9002908AF002F084B
:1005CC00031DEF2A0030A0000030A1000030A20073
:1005DC0008000030AB000030AC000030AD008930BA
:1005EC002F07A6002608AE022308A6002408A700A1
:1005FC002508A8001030A836A70CA60C890B012BD7
:10060C002608A9002908AF002008A6002108A70089
:10061C002208A8001030A836A70CA60C890B112BA9
:10062C002608A9002908AF068030A6002608AF05C9
:10063C00A417FF30A305FF30A4050030A505A117B2
:10064C00FF30A005FF30A1050030A2051830A60030
:10065C002608AA000130AB35AC0DAD0D890B312B42
:10066C0022082502031D402B21082402031D402BC8
:10067C0020082302031C492B2008A3022108A43BB9
:10068C002208A53B2B140130A335A40DA50D890B15
:10069C004A2B0130AA02031D302B2B08F0002C082A
:1006AC00F1002D08F2002E08A6002608F3002F08F2
:1006BC00A7002708F4008131D72170082000A00082
:1006CC007108A1007208A2000800A0302000C6002A
:1006DC004608D0008F312E27833120005108F000BE
:1006EC005208F1005308F2008E31C8268331FE2BDC
:1006FC005008063E86008701403FBE00413FBF00C8
:10070C0081317B2183310A302000A2008830A30084
:10071C00500886008701403FA400413FA5005008C7
:10072C00063E86008701403FA600413FA70084316A
:10073C00452483312000CE015008043E86008701F9
:10074C00403FC600413FC7004E08C800C9014708DA
:10075C004902031DB32B460848020318FE2B4330F5
:10076C00A2008830A3004E08C600C701C635C70DCD
:10077C00C635C70D5008023E86008701403FC800B1
:10078C00413FC9004608480786004708493D870095
:10079C00403FA400413FA500423FA60084314524C0
:1007AC00833120004E08C600C701C635C70DC635BB
:1007BC00C70D5008023E86008701403FC800413FEC
:1007CC00C9004608480786004708493D8700403F56
:1007DC00B900413FBA00423FBB00433FBC008031EF
:1007EC000B20833101302000C6004608CE07A22B17
:1007FC0020008C1E7E2B04308F311E278331710814
:10080C002000CB007008CA00AA30CC000030CD000C
:10081C004C08013EF00000304D3DF1004B08F30058
:10082C004A08F20080312E20833170082000C60067
:10083C004608CF004F08C6000230C635FF3E031DE8
:10084C00232C4635A03EC7004708D0000130C60017
:10085C004608CF074F1C342C1614352C1610CF1C01
:10086C00392C96143A2C96104F1D3E2C16153F2CF5
:10087C001611CF1D432C9615FE2B9611FE2B2430F2
:10088C002000A8002808AE0020002308A900220898
:10089C00A800A20A0319A30A2808840029088500C5
:1008AC000008AA002A08B7003708031908002530E9
:1008BC0037060319662C37088E31C32684314A2C2F
:1008CC002000B501B601AD01220884002308850083
:1008DC0000088F3110278431031C002D2000B50136
:1008EC00B6010A30F9000030FA0020003608FC008E
:1008FC003508FB008F31862784317A082000B6003A
:10090C007908B50022088400230885000008D03E31
:10091C00A800FF3003180030A9002808B5072908E3
:10092C00B63D0130A2070030A33D22088400230805
:10093C00850000088F3110278431031C002D772C83
:10094C0020002E0886008701403FAF00413FB000D9
:10095C000230A8002808AE072F083004031DBA2C5B
:10096C003530AF008830B000B301B4012F08330725
:10097C0084003008343D850012000319CA2C013064
:10098C00B3070030B43DBC2C36083402031DD02C08
:10099C00350833020318D72C3308B5023408B63B9C
:1009AC00D92CB501B601FF302000B507FF30B63D9C
:1009BC00350A0319360A0319F52C20308E31C3265B
:1009CC008431D92C2F0884003008850000088E3122
:1009DC00C326843101302000AF070030B03D013018
:1009EC00B3020030B43B330A031DE82C340A03195C
:1009FC004A2CE82C20002308A9002208A800A20AEF
:100A0C000319A30A28088400290885000008B700E8
:100A1C00003A0319D42D643A03191B2D0D3A03190E
:100A2C001B2D1A3A0319A62C4A2C20002E088600DE
:100A3C008701403FB100413FB2000230A8002808B6
:100A4C00AE07B21F322D0330A8002808AD04B1093F
:100A5C00B209B10A0319B20AB701B70A0530370651
:100A6C000319572D3708A800A901A835A90D003086
:100A7C00280784008830293D8500003FAA00013FEB
:100A8C00AB002B083202031D4D2D2A083102031C2A
:100A9C00572D0130A8002808B70705303706031D6D
:100AAC00382D350836040319632D2D080339031925
:100ABC00632DFF30B507FF30B63D3708A800A901FC
:100ACC00A81BA9032908803AAA003608803A2A02F2
:100ADC00031D722D3508280203187F2D20003708BE
:100AEC00A800A901A81BA9032808B5022908B63B30
:100AFC00822D2000B501B601350836040319932D5B
:100B0C0020308E31C3268431FF302000B507FF30F2
:100B1C00B63D35083604031D862D2D0803390319FF
:100B2C009B2D2D308E31C326843120003708A80030
:100B3C002808AC00FF302000A8002808AC072C0ABD
:100B4C0003194A2C0A30F8000030F9002C08A800D0
:100B5C00A901A835A90D0030280784008830293D4B
:100B6C008500003FF000013FF1003208F30031082E
:100B7C00F20080312E2084317108FB007008FA00DD
:100B8C008F31A42784317808303E2000AA002A082F
:100B9C00B70037088E31C3268431A02D08000634E7
:100BAC000134003402340B34023400340234DC34AB
:100BBC00003400340234B834013400340234E934E3
:100BCC00003400340234D2340134003402340034A2
:100BDC00003400340C3406340134003402340B3449
:100BEC00023400340234DC34003400340234B834BF
:100BFC00013400340234E934003400340234D23489
:100C0C000134003402340034003400340C34AF347A
:100C1C000034003402345D34013400340234933433
:100C2C0000340034023426340134003402349C3451
:100C3C0000340034023437340134003402340034CC
:100C4C00003400340C34AF340034003402345D34DE
:100C5C00013400340234933400340034023426342A
:100C6C000134003402349C34003400340234373400
:100C7C000134003402340034003400340634373488
:100C8C000134003401341534013400340234263478
:100C9C000134003404341534013400340434373452
:100CAC000134003404343734013400340434D03487
:100CBC00003400340434C4340034003404341534A7
:100CCC0001340034043406340134003402347234F8
:100CDC000134003402345D34013400340234A53460
:100CEC00003400340234D234013400340234B834C9
:100CFC000134003402349F3401340034023437346C
:100D0C00013400340234F734003400340234E93452
:100D1C00003400340234DC34003400340234D03477
:100D2C0000340034023493340234003404349334E9
:100D3C0002340034043493340234003408349334D1
:100D4C0002340034043493340234003404349334C5
:100D5C000234003408349334023400340434103434
:100D6C000334003404340B340234003406344B3472
:100D7C000234003402349334023400341034BA3464
:100D8C00023400340434BA34023400340434BA3437
:100D9C00023400340434BA34023400340434BA3427
:100DAC000234003404349334023400340434933465
:100DBC0002340034043493340234003404344B349D
:100DCC000234003404344B3402340034043493348D
:100DDC0002340034043493340234003404344B347D
:100DEC00023400340834103403340034083493349F
:100DFC000234003404349334023400340434933415
:100E0C000234003408349334023400340434933400
:100E1C0002340034043493340234003408349334F0
:100E2C0002340034043410340334003404340B34EE
:100E3C000234003406344B3402340034023493341C
:100E4C00023400341034BA34023400340434BA346A
:100E5C00023400340434BA34023400340434BA3466
:100E6C00023400340434BA3402340034043493347D
:100E7C000234003404349334023400340434933494
:100E8C000234003404341034033400340434103489
:100E9C00033400340434BA340234003404344B3494
:100EAC000234003404340B34023400341034703403
:100EBC000334003402340034003400340234173468
:100ECC00043400340334703403340034023470348A
:100EDC000334003401349734043400340234703455
:100EEC0003340034023410340334003402347034CC
:100EFC000334003402340034003400340234273418
:100F0C000534003403347034033400340234703448
:100F1C00033400340134753405340034023427347E
:100F2C000534003402341734043400340234703481
:100F3C000334003402342734053400340234E034F2
:100F4C000634003402347034033400340134103469
:100F5C000334003402341034033400340134933439
:100F6C00023400340234DC34033400340234703480
:100F7C00033400340634D5308400853085000430C9
:100F8C008600223087000130FF00EC308F310427BF
:100F9C008731D03084008F308500A030860000303F
:100FAC0087000030FF0030308F31042787319E30AE
:100FBC0084008030850020308600013087000030AE
:100FCC00FF0040308F3104278731DE3084008030C1
:100FDC008500A0308600013087000030FF004C30C7
:100FEC008F310427D101D201D301D401D5012000C6
:100FFC0083316B2B013400340A34003464340034F4
:10100C00E8340334103427340A340D3450346C343F
:10101C006134793469346E34673420342534733454
:10102C003A340A340D34543465346D3470346F34BE
:10103C0020343D34203425346934003441342E348A
:10104C00203446346F346C346534793400344C3489
:10105C0075346C346C346134623479340034283433
:10106C006E3475346C346C3429340034413453345C
:10107C004F3449344134463400340A340D34093485
:10108C002534343469340034423465346C346C3473
:10109C007334003453344D344234323400345334CA
:0A10AC004D34423400342E34003479
:101D760020009E1708002E000C0E890C0139080061
:101D8600F10071088E31D026080072082B009100F0
:101D96007108900070088F000800F0002E000F1EDA
:101DA600D12E700822009A000800623031008D00A2
:101DB6008F01910102309300920108000830220041
:101DC6009F0090309D0024309E000C309B009C01AB
:101DD60008002B00920193018E018D0191010330C1
:101DE60090009B308F009217080020009E0148301B
:101DF6009F00F4309D009C012E008C128E31BB2674
:101E06000800FE0012001E000130FE020030FF3BFB
:101E16007F087E0403190034052FF100F0013A30E3
:101E2600710203181C2F30307102031C1C2FF001A5
:101E3600F00A700C0800F300730821009E00931747
:101E4600131313141318252F000021000D08F10099
:101E56000C08F0000800803162208F318E31D826C0
:101E66008F318F3154278F318E31EC268F318E3161
:101E7600F8268F318E31E12608007808F0007908BF
:101E8600F1007A08F2008E30FB007B08F300F401C3
:101E96008131D7217008F8007108F9007208FA003C
:101EA6000800210094019501960199019701980176
:101EB6009A019B019C019D019E0122008D018E01CC
:101EC6008F019001910192019301943021009300BA
:101ED60008002000B8005930A2008830A3008431E1
:101EE60045248F312E008C128E31BB268F318E31D8
:101EF600BE268F31003A03197A2F01302000B8022E
:101F0600031908006E2F2000A001A101791C902F53
:101F16007B082000A0077C08A13D0130FB35FC0DA5
:101F2600890B912F0130FA36F90C890B962F790817
:101F36007A04031D892F20002108FA002008F900E1
:101F46000800780879040319CB2FFD01FD0AF91B57
:101F5600B62F0130F835F90D890BAD2F0130FC0095
:101F66007C08FD07AA2F79087B02031DBC2F780881
:101F76007A02031CC22F7808FA027908FB3B01306B
:101F8600F936F80C890BC32F0130FD02031DB62F5D
:101F96007B08F9007A08F80008003C348834A0343D
:101FA600013413340034B43400344A3488340434ED
:101FB600223431340034783400342D3488342034DB
:101FC6000134103400345A34003455348834C8345B
:101FD600223431340034F034003450348834C83478
:101FE60022343134003478340034243488348C3448
:0A1FF6002334193400347834003429
:020000040001F9
:0A000E00EC3FFF3B9F3FFF3FFF3F29
:00000001FF
