:08000000803102288731FD2F39
:100EB00016302100970008006230320099009B0133
:100EC0009D0103309F009E01080087316E27873106
:100ED00087315C27873187315827080022008C0131
:100EE0008D018E01303021008C0080308D00F83073
:100EF0008E00FF3023008E00F0308D0037308C00E4
:100F000024008D018C018E0125008C018D018E0144
:100F1000080087316527873122000C108C100C11D6
:100F20000D128D120D130E108E100E1103102200D3
:100F30000C1C0314031C9F2F22000C14A12F220051
:100F40000C1003108C1C0314031CA92F22008C14FA
:100F5000AB2F22008C1003100C1D0314031CB32FA5
:100F600022000C15B52F22000C1103100D1E0314C6
:100F7000031CBD2F22000D16BF2F22000D120310DF
:100F80008D1E0314031CC72F22008D16C92F2200AB
:100F90008D1203100D1F0314031CD12F22000D17F7
:100FA000D32F22000D1303100E1C0314031CDB2F80
:100FB00022000E14DD2F22000E1003108E1C0314CD
:100FC000031CE52F22008E14E72F22008E10031041
:100FD0000E1D0314031CEF2F22000E15F12F22000B
:100FE0000E110230F1004530F000AA30890BF62FC7
:100FF000F00BF62FF10BF62F962F20008731892F5B
:020000040001F9
:08000E00EFFFF3FFFFFFFFFF0E
:00000001FF
