:04000000803114280F
:100008007E14803120007F08F2002E00961A8C1E84
:100018000F288331C72372082000FF007E100900D3
:1000280080311628F701F801F901203084000030EA
:10003800850017308331F2237E1020008031C128DB
:1000480079030319422820009613161396121612E4
:1000580027008E1755303D008F00AA308F000F10F3
:100068000E303E00970055303D008F00AA308F00BB
:100078000F14843117248031F901F90A7903031D1B
:100088005E28003083318023803173082000BB0054
:100098007408BC000630BC36BB0C890B4F283B08E3
:1000A800A6003C08A7002708F4002608F3008331BF
:1000B8001C23803178080319080084311124270093
:1000C8008E1355303D008F00AA308F000F103E0070
:1000D800970155303D008F00AA308F000F14F901A9
:1000E8000800790303197F28200096131613961227
:1000F8001612F901F90A7903031DBC280030200003
:10010800BD007030BE000030833180238031730819
:100118002000BB007408BC003C0E0F39BB00BC01BA
:100128003B08A4003C08A5003E08F4003D08F30085
:100138002408BB003B08F5008231A2228031200050
:100148003E08F4003D08F3008331D42380312000B9
:10015800BB003B08AB002B08BB000330BB35FF3EA0
:10016800031DB2283B35BC003C08AA002A089600AB
:10017800780803190800F90108008231BE2280318D
:10018800833190238031F02883315A238031FE282F
:100198008131C2218031FE28823155228031FE28EA
:1001A800823125228031FE28813105218031FE28C7
:1001B800803124208031FE28813189218031FE2838
:1001C800823182228031FE288131F5218031FE285A
:1001D800803175208031FE2820002908FF3E031C4D
:1001E800FE2884000A3004020318FE2883310435EF
:1001F800323E820078080319C4288331AD23803148
:10020800C42879030319112920009613161396128E
:100218001612F701F70AF901F90A7903031D4329B0
:10022800003083318023813174082000BB003B08F3
:10023800B100D030890B1E29000001302000B10226
:10024800310A03192C295330890B28290000212948
:100258007708BB000330BB35FF3E031D2F293B3514
:10026800BC003C08B000300896007735BB003B085E
:10027800F70010307706031D4329F701F70A7808BD
:1002880003190800F901080020009A019901960154
:1002980097019801073095000F309100FF309200C8
:1002A800FF309300FF309400F7303E00CE00CF308F
:1002B800C300FF30D9000730E4000F30B800DA017E
:1002C800E501C401B901CF01E601BA01C501D001B8
:1002D800DB0100308B1B0130F3008B1355303D00E0
:1002E8008F00AA308F000F101C08E03913389C00CB
:1002F8000D30C30055308F00AA308F000F14731CC7
:1003080087298B1708008B1308007903031998298C
:1003180020001616961316139612AF01AF0A8431F1
:1003280020248131F901F90A7903031DBB292E0024
:10033800101C9B298331E923813120002F35F300DC
:100348007308AF0010302F06031DAC29AF01AF0AA8
:100358002F08F3000330F335FF3E031DAF29733533
:10036800F4007408AE002E0896002E0010107808CD
:100378000319080084311D24F901080079030319C1
:10038800CF29843120248131200096131613961228
:100398001612F901F90A7903031DEE292E00101C23
:1003A800D2298331E92381310130F3007308200019
:1003B800B60703303606031DEC290310161E031476
:1003C800031CE92920001616EB2920001612B60195
:1003D8002E00101078080319080084311D24F90133
:1003E800080079030319092A20001617161FFF2988
:1003F80020001616012A2000161296139612843130
:10040800082481316300F901F90A7903031D202AC0
:100418002000161316129617961F152A20009616F6
:10042800172A20009612843104248131003A031DD2
:10043800202A84310B248131780803190800F90136
:100448000800790303192F2A200096131613961211
:100458001612F901F90A7903031D502A0030833175
:100468008023823173082000BB007408BC003C0E56
:100478000F39BB00BC013B08BD003D08B300330881
:10048800BB000330BB35FF3E031D462A3B35BC008D
:100498003C08B20032089600780803190800F901F0
:1004A800080079030319612A2000161696131613FB
:1004B8009612B501B50AF901F90A7903031D7D2AD7
:1004C80083316E23823103102000B50D10303506BC
:1004D800031D702AB501B50A3508F5000330F53556
:1004E800FF3E031D732A7535F6007608B4003408FC
:1004F8009600780803190800F90108007903031920
:10050800992A20001616961316139612AD01AD0AF5
:100518008B170B17EE30F3000230F4008331FE2303
:1005280082312E009616F901F90A78080319080095
:100538002E0096128B130B13F901080000308B1B49
:100548000130F600740830009B0073089A007508A3
:100558009C001E171E158B1355309F00AA309F0054
:100568009E149E18B52A1E11760C031C8B130318B3
:100578008B1708008331F823823181314821823179
:100588008331E02382318331BA2382318231D6220A
:10059800823183319F238231833106238231833133
:1005A80046230800210094019501960199019701BD
:1005B80098019A019B019C019D019E0122008D01D9
:1005C8008E018F01900191019201930180302100E9
:1005D8009300080020002D03031DF62A1030F000B8
:1005E8007008AD000310AD0C2D08F0000330F03595
:1005F800FF3E031DFB2A7035F1007108AC002C0882
:100608009600080024008E018F01900101309100AE
:100618000B308D00DC308C000D082000BA0024005F
:100628000C082000B9002E00101084312024080086
:100638007408F6007308F500F636F50CF636F50C76
:10064800750827008D0073080339F5000530F53566
:10065800FF3E031D2B2B75358C0008008031C82800
:100668008031CC288031D0288031D4288031D828D6
:100678008031DC288031E0288031E4288031E82886
:100688008031EC2820009E0148309F00F3309D0007
:100698009C012E008C1296162330F3000430F400CF
:1006A8008331FE23833184310E2408007903031932
:1006B800642B20009613161396121612F901F90AE4
:1006C8007903031D692B2000161678080319080002
:1006D800F9010800F401F401193074020318080044
:1006E8000430F3003E30890B772BF30B772B013066
:1006F800F3007308F407702BF600760821009E00BB
:100708009317131313141318872B000021000D08D7
:10071800F4000C08F300080020002808031D992B9A
:100728000D1A0800A801A80A08000D1E0800A80153
:10073800F801F80A080025008E01013090008F01A9
:100748009101FF308D008C012E00901084311A2405
:100758000800F8010130F30073082000A9070B30E6
:100768002906031D0800A901A90A080080302700EE
:100778008E00CC308D0080308C0024001F08F339A7
:1007880004389F0008002E008C1220003708380417
:100798000319080038088A0037080A00833108005E
:1007A800740830009B0073089A001E171E1400007E
:1007B800000030001C080800623031008D008F01F5
:1007C8009101013093009201080020003A082400AA
:1007D8008D002000390824008C0008006400800186
:1007E8000131890BF32B0034183030008C0017309E
:1007F8008D00080074082000B8007308B7000800CE
:100808003000130E0139080030000C1408003000C5
:100818000C10080020009E170800843114240800DA
:1008280025008E13080084311A24080025008E172D
:10083800080024000E10080024000E140800080008
:020000040001F9
:0A000E00EC3FFF33AC0FFF3FFF3F54
:00000001FF
